{
  "_format": "hh-sol-artifact-1",
  "contractName": "NewMintNet",
  "sourceName": "contracts/NewMintNet.sol",
  "abi": [
    {
      "inputs": [],
      "stateMutability": "payable",
      "type": "constructor"
    },
    {
      "anonymous": false,
      "inputs": [
        {
          "indexed": true,
          "internalType": "address",
          "name": "owner",
          "type": "address"
        },
        {
          "indexed": true,
          "internalType": "address",
          "name": "approved",
          "type": "address"
        },
        {
          "indexed": true,
          "internalType": "uint256",
          "name": "tokenId",
          "type": "uint256"
        }
      ],
      "name": "Approval",
      "type": "event"
    },
    {
      "anonymous": false,
      "inputs": [
        {
          "indexed": true,
          "internalType": "address",
          "name": "owner",
          "type": "address"
        },
        {
          "indexed": true,
          "internalType": "address",
          "name": "operator",
          "type": "address"
        },
        {
          "indexed": false,
          "internalType": "bool",
          "name": "approved",
          "type": "bool"
        }
      ],
      "name": "ApprovalForAll",
      "type": "event"
    },
    {
      "inputs": [
        {
          "internalType": "address",
          "name": "to",
          "type": "address"
        },
        {
          "internalType": "uint256",
          "name": "tokenId",
          "type": "uint256"
        }
      ],
      "name": "approve",
      "outputs": [],
      "stateMutability": "nonpayable",
      "type": "function"
    },
    {
      "inputs": [],
      "name": "mint",
      "outputs": [],
      "stateMutability": "payable",
      "type": "function"
    },
    {
      "anonymous": false,
      "inputs": [
        {
          "indexed": true,
          "internalType": "address",
          "name": "previousOwner",
          "type": "address"
        },
        {
          "indexed": true,
          "internalType": "address",
          "name": "newOwner",
          "type": "address"
        }
      ],
      "name": "OwnershipTransferred",
      "type": "event"
    },
    {
      "inputs": [],
      "name": "renounceOwnership",
      "outputs": [],
      "stateMutability": "nonpayable",
      "type": "function"
    },
    {
      "inputs": [
        {
          "internalType": "address",
          "name": "from",
          "type": "address"
        },
        {
          "internalType": "address",
          "name": "to",
          "type": "address"
        },
        {
          "internalType": "uint256",
          "name": "tokenId",
          "type": "uint256"
        }
      ],
      "name": "safeTransferFrom",
      "outputs": [],
      "stateMutability": "nonpayable",
      "type": "function"
    },
    {
      "inputs": [
        {
          "internalType": "address",
          "name": "from",
          "type": "address"
        },
        {
          "internalType": "address",
          "name": "to",
          "type": "address"
        },
        {
          "internalType": "uint256",
          "name": "tokenId",
          "type": "uint256"
        },
        {
          "internalType": "bytes",
          "name": "_data",
          "type": "bytes"
        }
      ],
      "name": "safeTransferFrom",
      "outputs": [],
      "stateMutability": "nonpayable",
      "type": "function"
    },
    {
      "inputs": [
        {
          "internalType": "address",
          "name": "operator",
          "type": "address"
        },
        {
          "internalType": "bool",
          "name": "approved",
          "type": "bool"
        }
      ],
      "name": "setApprovalForAll",
      "outputs": [],
      "stateMutability": "nonpayable",
      "type": "function"
    },
    {
      "inputs": [
        {
          "internalType": "uint256",
          "name": "_maxSupply",
          "type": "uint256"
        }
      ],
      "name": "setMaxSupply",
      "outputs": [],
      "stateMutability": "nonpayable",
      "type": "function"
    },
    {
      "inputs": [],
      "name": "toggleMint",
      "outputs": [],
      "stateMutability": "nonpayable",
      "type": "function"
    },
    {
      "anonymous": false,
      "inputs": [
        {
          "indexed": true,
          "internalType": "address",
          "name": "from",
          "type": "address"
        },
        {
          "indexed": true,
          "internalType": "address",
          "name": "to",
          "type": "address"
        },
        {
          "indexed": true,
          "internalType": "uint256",
          "name": "tokenId",
          "type": "uint256"
        }
      ],
      "name": "Transfer",
      "type": "event"
    },
    {
      "inputs": [
        {
          "internalType": "address",
          "name": "from",
          "type": "address"
        },
        {
          "internalType": "address",
          "name": "to",
          "type": "address"
        },
        {
          "internalType": "uint256",
          "name": "tokenId",
          "type": "uint256"
        }
      ],
      "name": "transferFrom",
      "outputs": [],
      "stateMutability": "nonpayable",
      "type": "function"
    },
    {
      "inputs": [
        {
          "internalType": "address",
          "name": "newOwner",
          "type": "address"
        }
      ],
      "name": "transferOwnership",
      "outputs": [],
      "stateMutability": "nonpayable",
      "type": "function"
    },
    {
      "inputs": [
        {
          "internalType": "address",
          "name": "owner",
          "type": "address"
        }
      ],
      "name": "balanceOf",
      "outputs": [
        {
          "internalType": "uint256",
          "name": "",
          "type": "uint256"
        }
      ],
      "stateMutability": "view",
      "type": "function"
    },
    {
      "inputs": [
        {
          "internalType": "uint256",
          "name": "tokenId",
          "type": "uint256"
        }
      ],
      "name": "getApproved",
      "outputs": [
        {
          "internalType": "address",
          "name": "",
          "type": "address"
        }
      ],
      "stateMutability": "view",
      "type": "function"
    },
    {
      "inputs": [
        {
          "internalType": "address",
          "name": "owner",
          "type": "address"
        },
        {
          "internalType": "address",
          "name": "operator",
          "type": "address"
        }
      ],
      "name": "isApprovedForAll",
      "outputs": [
        {
          "internalType": "bool",
          "name": "",
          "type": "bool"
        }
      ],
      "stateMutability": "view",
      "type": "function"
    },
    {
      "inputs": [],
      "name": "isMintEnabled",
      "outputs": [
        {
          "internalType": "bool",
          "name": "",
          "type": "bool"
        }
      ],
      "stateMutability": "view",
      "type": "function"
    },
    {
      "inputs": [],
      "name": "maxSupply",
      "outputs": [
        {
          "internalType": "uint256",
          "name": "",
          "type": "uint256"
        }
      ],
      "stateMutability": "view",
      "type": "function"
    },
    {
      "inputs": [
        {
          "internalType": "address",
          "name": "",
          "type": "address"
        }
      ],
      "name": "mintedWallet",
      "outputs": [
        {
          "internalType": "uint256",
          "name": "",
          "type": "uint256"
        }
      ],
      "stateMutability": "view",
      "type": "function"
    },
    {
      "inputs": [],
      "name": "mintPrice",
      "outputs": [
        {
          "internalType": "uint256",
          "name": "",
          "type": "uint256"
        }
      ],
      "stateMutability": "view",
      "type": "function"
    },
    {
      "inputs": [],
      "name": "name",
      "outputs": [
        {
          "internalType": "string",
          "name": "",
          "type": "string"
        }
      ],
      "stateMutability": "view",
      "type": "function"
    },
    {
      "inputs": [],
      "name": "owner",
      "outputs": [
        {
          "internalType": "address",
          "name": "",
          "type": "address"
        }
      ],
      "stateMutability": "view",
      "type": "function"
    },
    {
      "inputs": [
        {
          "internalType": "uint256",
          "name": "tokenId",
          "type": "uint256"
        }
      ],
      "name": "ownerOf",
      "outputs": [
        {
          "internalType": "address",
          "name": "",
          "type": "address"
        }
      ],
      "stateMutability": "view",
      "type": "function"
    },
    {
      "inputs": [
        {
          "internalType": "bytes4",
          "name": "interfaceId",
          "type": "bytes4"
        }
      ],
      "name": "supportsInterface",
      "outputs": [
        {
          "internalType": "bool",
          "name": "",
          "type": "bool"
        }
      ],
      "stateMutability": "view",
      "type": "function"
    },
    {
      "inputs": [],
      "name": "symbol",
      "outputs": [
        {
          "internalType": "string",
          "name": "",
          "type": "string"
        }
      ],
      "stateMutability": "view",
      "type": "function"
    },
    {
      "inputs": [
        {
          "internalType": "uint256",
          "name": "tokenId",
          "type": "uint256"
        }
      ],
      "name": "tokenURI",
      "outputs": [
        {
          "internalType": "string",
          "name": "",
          "type": "string"
        }
      ],
      "stateMutability": "view",
      "type": "function"
    },
    {
      "inputs": [],
      "name": "totalSupply",
      "outputs": [
        {
          "internalType": "uint256",
          "name": "",
          "type": "uint256"
        }
      ],
      "stateMutability": "view",
      "type": "function"
    }
  ],
  "bytecode": "608060405266b1a2bc2ec500006008556040518060400160405280600781526020017f4e65774d696e74000000000000000000000000000000000000000000000000008152506040518060400160405280600381526020017f4e4d540000000000000000000000000000000000000000000000000000000000815250816000908051906020019062000093929190620001ab565b508060019080519060200190620000ac929190620001ab565b505050620000cf620000c3620000dd60201b60201c565b620000e560201b60201c565b6064600a81905550620002c0565b600033905090565b6000600660009054906101000a900473ffffffffffffffffffffffffffffffffffffffff16905081600660006101000a81548173ffffffffffffffffffffffffffffffffffffffff021916908373ffffffffffffffffffffffffffffffffffffffff1602179055508173ffffffffffffffffffffffffffffffffffffffff168173ffffffffffffffffffffffffffffffffffffffff167f8be0079c531659141344cd1fd0a4f28419497f9722a3daafe3b4186f6b6457e060405160405180910390a35050565b828054620001b9906200025b565b90600052602060002090601f016020900481019282620001dd576000855562000229565b82601f10620001f857805160ff191683800117855562000229565b8280016001018555821562000229579182015b82811115620002285782518255916020019190600101906200020b565b5b5090506200023891906200023c565b5090565b5b80821115620002575760008160009055506001016200023d565b5090565b600060028204905060018216806200027457607f821691505b602082108114156200028b576200028a62000291565b5b50919050565b7f4e487b7100000000000000000000000000000000000000000000000000000000600052602260045260246000fd5b61363d80620002d06000396000f3fe60806040526004361061014b5760003560e01c80636f8b44b0116100b6578063b88d4fde1161006f578063b88d4fde14610471578063c87b56dd1461049a578063d3dd5fe0146104d7578063d5abeb01146104ee578063e985e9c514610519578063f2fde38b146105565761014b565b80636f8b44b01461037557806370a082311461039e578063715018a6146103db5780638da5cb5b146103f257806395d89b411461041d578063a22cb465146104485761014b565b8063236bc5f011610108578063236bc5f01461025357806323b872dd14610290578063346de50a146102b957806342842e0e146102e45780636352211e1461030d5780636817c76c1461034a5761014b565b806301ffc9a71461015057806306fdde031461018d578063081812fc146101b8578063095ea7b3146101f55780631249c58b1461021e57806318160ddd14610228575b600080fd5b34801561015c57600080fd5b50610177600480360381019061017291906123e9565b61057f565b60405161018491906128cd565b60405180910390f35b34801561019957600080fd5b506101a2610661565b6040516101af91906128e8565b60405180910390f35b3480156101c457600080fd5b506101df60048036038101906101da9190612443565b6106f3565b6040516101ec9190612866565b60405180910390f35b34801561020157600080fd5b5061021c600480360381019061021791906123a9565b610778565b005b610226610890565b005b34801561023457600080fd5b5061023d610a94565b60405161024a9190612bca565b60405180910390f35b34801561025f57600080fd5b5061027a60048036038101906102759190612226565b610a9a565b6040516102879190612bca565b60405180910390f35b34801561029c57600080fd5b506102b760048036038101906102b29190612293565b610ab2565b005b3480156102c557600080fd5b506102ce610b12565b6040516102db91906128cd565b60405180910390f35b3480156102f057600080fd5b5061030b60048036038101906103069190612293565b610b25565b005b34801561031957600080fd5b50610334600480360381019061032f9190612443565b610b45565b6040516103419190612866565b60405180910390f35b34801561035657600080fd5b5061035f610bf7565b60405161036c9190612bca565b60405180910390f35b34801561038157600080fd5b5061039c60048036038101906103979190612443565b610bfd565b005b3480156103aa57600080fd5b506103c560048036038101906103c09190612226565b610c83565b6040516103d29190612bca565b60405180910390f35b3480156103e757600080fd5b506103f0610d3b565b005b3480156103fe57600080fd5b50610407610dc3565b6040516104149190612866565b60405180910390f35b34801561042957600080fd5b50610432610ded565b60405161043f91906128e8565b60405180910390f35b34801561045457600080fd5b5061046f600480360381019061046a9190612369565b610e7f565b005b34801561047d57600080fd5b50610498600480360381019061049391906122e6565b610e95565b005b3480156104a657600080fd5b506104c160048036038101906104bc9190612443565b610ef7565b6040516104ce91906128e8565b60405180910390f35b3480156104e357600080fd5b506104ec610f09565b005b3480156104fa57600080fd5b50610503610fb1565b6040516105109190612bca565b60405180910390f35b34801561052557600080fd5b50610540600480360381019061053b9190612253565b610fb7565b60405161054d91906128cd565b60405180910390f35b34801561056257600080fd5b5061057d60048036038101906105789190612226565b61104b565b005b60007f80ac58cd000000000000000000000000000000000000000000000000000000007bffffffffffffffffffffffffffffffffffffffffffffffffffffffff1916827bffffffffffffffffffffffffffffffffffffffffffffffffffffffff1916148061064a57507f5b5e139f000000000000000000000000000000000000000000000000000000007bffffffffffffffffffffffffffffffffffffffffffffffffffffffff1916827bffffffffffffffffffffffffffffffffffffffffffffffffffffffff1916145b8061065a575061065982611143565b5b9050919050565b60606000805461067090612def565b80601f016020809104026020016040519081016040528092919081815260200182805461069c90612def565b80156106e95780601f106106be576101008083540402835291602001916106e9565b820191906000526020600020905b8154815290600101906020018083116106cc57829003601f168201915b5050505050905090565b60006106fe826111ad565b61073d576040517f08c379a000000000000000000000000000000000000000000000000000000000815260040161073490612aea565b60405180910390fd5b6004600083815260200190815260200160002060009054906101000a900473ffffffffffffffffffffffffffffffffffffffff169050919050565b600061078382610b45565b90508073ffffffffffffffffffffffffffffffffffffffff168373ffffffffffffffffffffffffffffffffffffffff1614156107f4576040517f08c379a00000000000000000000000000000000000000000000000000000000081526004016107eb90612b6a565b60405180910390fd5b8073ffffffffffffffffffffffffffffffffffffffff16610813611219565b73ffffffffffffffffffffffffffffffffffffffff16148061084257506108418161083c611219565b610fb7565b5b610881576040517f08c379a000000000000000000000000000000000000000000000000000000000815260040161087890612a2a565b60405180910390fd5b61088b8383611221565b505050565b600b60009054906101000a900460ff166108df576040517f08c379a00000000000000000000000000000000000000000000000000000000081526004016108d690612b4a565b60405180910390fd5b600a5460095410610925576040517f08c379a000000000000000000000000000000000000000000000000000000000815260040161091c90612a0a565b60405180910390fd5b6005600c60003373ffffffffffffffffffffffffffffffffffffffff1673ffffffffffffffffffffffffffffffffffffffff16815260200190815260200160002054106109a7576040517f08c379a000000000000000000000000000000000000000000000000000000000815260040161099e90612baa565b60405180910390fd5b60085434146109eb576040517f08c379a00000000000000000000000000000000000000000000000000000000081526004016109e29061290a565b60405180910390fd5b60006040518060600160405280603581526020016135d3603591399050600c60003373ffffffffffffffffffffffffffffffffffffffff1673ffffffffffffffffffffffffffffffffffffffff1681526020019081526020016000206000815480929190610a5890612e52565b919050555060096000815480929190610a7090612e52565b919050555060006009549050610a8633826112da565b610a9081836112f8565b5050565b60095481565b600c6020528060005260406000206000915090505481565b610ac3610abd611219565b8261136c565b610b02576040517f08c379a0000000000000000000000000000000000000000000000000000000008152600401610af990612b8a565b60405180910390fd5b610b0d83838361144a565b505050565b600b60009054906101000a900460ff1681565b610b4083838360405180602001604052806000815250610e95565b505050565b6000806002600084815260200190815260200160002060009054906101000a900473ffffffffffffffffffffffffffffffffffffffff169050600073ffffffffffffffffffffffffffffffffffffffff168173ffffffffffffffffffffffffffffffffffffffff161415610bee576040517f08c379a0000000000000000000000000000000000000000000000000000000008152600401610be590612a6a565b60405180910390fd5b80915050919050565b60085481565b610c05611219565b73ffffffffffffffffffffffffffffffffffffffff16610c23610dc3565b73ffffffffffffffffffffffffffffffffffffffff1614610c79576040517f08c379a0000000000000000000000000000000000000000000000000000000008152600401610c7090612b0a565b60405180910390fd5b80600a8190555050565b60008073ffffffffffffffffffffffffffffffffffffffff168273ffffffffffffffffffffffffffffffffffffffff161415610cf4576040517f08c379a0000000000000000000000000000000000000000000000000000000008152600401610ceb90612a4a565b60405180910390fd5b600360008373ffffffffffffffffffffffffffffffffffffffff1673ffffffffffffffffffffffffffffffffffffffff168152602001908152602001600020549050919050565b610d43611219565b73ffffffffffffffffffffffffffffffffffffffff16610d61610dc3565b73ffffffffffffffffffffffffffffffffffffffff1614610db7576040517f08c379a0000000000000000000000000000000000000000000000000000000008152600401610dae90612b0a565b60405180910390fd5b610dc160006116b1565b565b6000600660009054906101000a900473ffffffffffffffffffffffffffffffffffffffff16905090565b606060018054610dfc90612def565b80601f0160208091040260200160405190810160405280929190818152602001828054610e2890612def565b8015610e755780601f10610e4a57610100808354040283529160200191610e75565b820191906000526020600020905b815481529060010190602001808311610e5857829003601f168201915b5050505050905090565b610e91610e8a611219565b8383611777565b5050565b610ea6610ea0611219565b8361136c565b610ee5576040517f08c379a0000000000000000000000000000000000000000000000000000000008152600401610edc90612b8a565b60405180910390fd5b610ef1848484846118e4565b50505050565b6060610f0282611940565b9050919050565b610f11611219565b73ffffffffffffffffffffffffffffffffffffffff16610f2f610dc3565b73ffffffffffffffffffffffffffffffffffffffff1614610f85576040517f08c379a0000000000000000000000000000000000000000000000000000000008152600401610f7c90612b0a565b60405180910390fd5b600b60009054906101000a900460ff1615600b60006101000a81548160ff021916908315150217905550565b600a5481565b6000600560008473ffffffffffffffffffffffffffffffffffffffff1673ffffffffffffffffffffffffffffffffffffffff16815260200190815260200160002060008373ffffffffffffffffffffffffffffffffffffffff1673ffffffffffffffffffffffffffffffffffffffff16815260200190815260200160002060009054906101000a900460ff16905092915050565b611053611219565b73ffffffffffffffffffffffffffffffffffffffff16611071610dc3565b73ffffffffffffffffffffffffffffffffffffffff16146110c7576040517f08c379a00000000000000000000000000000000000000000000000000000000081526004016110be90612b0a565b60405180910390fd5b600073ffffffffffffffffffffffffffffffffffffffff168173ffffffffffffffffffffffffffffffffffffffff161415611137576040517f08c379a000000000000000000000000000000000000000000000000000000000815260040161112e9061294a565b60405180910390fd5b611140816116b1565b50565b60007f01ffc9a7000000000000000000000000000000000000000000000000000000007bffffffffffffffffffffffffffffffffffffffffffffffffffffffff1916827bffffffffffffffffffffffffffffffffffffffffffffffffffffffff1916149050919050565b60008073ffffffffffffffffffffffffffffffffffffffff166002600084815260200190815260200160002060009054906101000a900473ffffffffffffffffffffffffffffffffffffffff1673ffffffffffffffffffffffffffffffffffffffff1614159050919050565b600033905090565b816004600083815260200190815260200160002060006101000a81548173ffffffffffffffffffffffffffffffffffffffff021916908373ffffffffffffffffffffffffffffffffffffffff160217905550808273ffffffffffffffffffffffffffffffffffffffff1661129483610b45565b73ffffffffffffffffffffffffffffffffffffffff167f8c5be1e5ebec7d5bd14f71427d1e84f3dd0314c0f7b2291e5b200ac8c7c3b92560405160405180910390a45050565b6112f4828260405180602001604052806000815250611a92565b5050565b611301826111ad565b611340576040517f08c379a000000000000000000000000000000000000000000000000000000000815260040161133790612a8a565b60405180910390fd5b806007600084815260200190815260200160002090805190602001906113679291906120aa565b505050565b6000611377826111ad565b6113b6576040517f08c379a00000000000000000000000000000000000000000000000000000000081526004016113ad906129ea565b60405180910390fd5b60006113c183610b45565b90508073ffffffffffffffffffffffffffffffffffffffff168473ffffffffffffffffffffffffffffffffffffffff16148061140357506114028185610fb7565b5b8061144157508373ffffffffffffffffffffffffffffffffffffffff16611429846106f3565b73ffffffffffffffffffffffffffffffffffffffff16145b91505092915050565b8273ffffffffffffffffffffffffffffffffffffffff1661146a82610b45565b73ffffffffffffffffffffffffffffffffffffffff16146114c0576040517f08c379a00000000000000000000000000000000000000000000000000000000081526004016114b79061296a565b60405180910390fd5b600073ffffffffffffffffffffffffffffffffffffffff168273ffffffffffffffffffffffffffffffffffffffff161415611530576040517f08c379a0000000000000000000000000000000000000000000000000000000008152600401611527906129aa565b60405180910390fd5b61153b838383611aed565b611546600082611221565b6001600360008573ffffffffffffffffffffffffffffffffffffffff1673ffffffffffffffffffffffffffffffffffffffff16815260200190815260200160002060008282546115969190612d05565b925050819055506001600360008473ffffffffffffffffffffffffffffffffffffffff1673ffffffffffffffffffffffffffffffffffffffff16815260200190815260200160002060008282546115ed9190612c7e565b92505081905550816002600083815260200190815260200160002060006101000a81548173ffffffffffffffffffffffffffffffffffffffff021916908373ffffffffffffffffffffffffffffffffffffffff160217905550808273ffffffffffffffffffffffffffffffffffffffff168473ffffffffffffffffffffffffffffffffffffffff167fddf252ad1be2c89b69c2b068fc378daa952ba7f163c4a11628f55a4df523b3ef60405160405180910390a46116ac838383611af2565b505050565b6000600660009054906101000a900473ffffffffffffffffffffffffffffffffffffffff16905081600660006101000a81548173ffffffffffffffffffffffffffffffffffffffff021916908373ffffffffffffffffffffffffffffffffffffffff1602179055508173ffffffffffffffffffffffffffffffffffffffff168173ffffffffffffffffffffffffffffffffffffffff167f8be0079c531659141344cd1fd0a4f28419497f9722a3daafe3b4186f6b6457e060405160405180910390a35050565b8173ffffffffffffffffffffffffffffffffffffffff168373ffffffffffffffffffffffffffffffffffffffff1614156117e6576040517f08c379a00000000000000000000000000000000000000000000000000000000081526004016117dd906129ca565b60405180910390fd5b80600560008573ffffffffffffffffffffffffffffffffffffffff1673ffffffffffffffffffffffffffffffffffffffff16815260200190815260200160002060008473ffffffffffffffffffffffffffffffffffffffff1673ffffffffffffffffffffffffffffffffffffffff16815260200190815260200160002060006101000a81548160ff0219169083151502179055508173ffffffffffffffffffffffffffffffffffffffff168373ffffffffffffffffffffffffffffffffffffffff167f17307eab39ab6107e8899845ad3d59bd9653f200f220920489ca2b5937696c31836040516118d791906128cd565b60405180910390a3505050565b6118ef84848461144a565b6118fb84848484611af7565b61193a576040517f08c379a00000000000000000000000000000000000000000000000000000000081526004016119319061292a565b60405180910390fd5b50505050565b606061194b826111ad565b61198a576040517f08c379a000000000000000000000000000000000000000000000000000000000815260040161198190612aca565b60405180910390fd5b60006007600084815260200190815260200160002080546119aa90612def565b80601f01602080910402602001604051908101604052809291908181526020018280546119d690612def565b8015611a235780601f106119f857610100808354040283529160200191611a23565b820191906000526020600020905b815481529060010190602001808311611a0657829003601f168201915b505050505090506000611a34611c8e565b9050600081511415611a4a578192505050611a8d565b600082511115611a7f578082604051602001611a67929190612842565b60405160208183030381529060405292505050611a8d565b611a8884611ca5565b925050505b919050565b611a9c8383611d4c565b611aa96000848484611af7565b611ae8576040517f08c379a0000000000000000000000000000000000000000000000000000000008152600401611adf9061292a565b60405180910390fd5b505050565b505050565b505050565b6000611b188473ffffffffffffffffffffffffffffffffffffffff16611f26565b15611c81578373ffffffffffffffffffffffffffffffffffffffff1663150b7a02611b41611219565b8786866040518563ffffffff1660e01b8152600401611b639493929190612881565b602060405180830381600087803b158015611b7d57600080fd5b505af1925050508015611bae57506040513d601f19601f82011682018060405250810190611bab9190612416565b60015b611c31573d8060008114611bde576040519150601f19603f3d011682016040523d82523d6000602084013e611be3565b606091505b50600081511415611c29576040517f08c379a0000000000000000000000000000000000000000000000000000000008152600401611c209061292a565b60405180910390fd5b805181602001fd5b63150b7a0260e01b7bffffffffffffffffffffffffffffffffffffffffffffffffffffffff1916817bffffffffffffffffffffffffffffffffffffffffffffffffffffffff191614915050611c86565b600190505b949350505050565b606060405180602001604052806000815250905090565b6060611cb0826111ad565b611cef576040517f08c379a0000000000000000000000000000000000000000000000000000000008152600401611ce690612b2a565b60405180910390fd5b6000611cf9611c8e565b90506000815111611d195760405180602001604052806000815250611d44565b80611d2384611f49565b604051602001611d34929190612842565b6040516020818303038152906040525b915050919050565b600073ffffffffffffffffffffffffffffffffffffffff168273ffffffffffffffffffffffffffffffffffffffff161415611dbc576040517f08c379a0000000000000000000000000000000000000000000000000000000008152600401611db390612aaa565b60405180910390fd5b611dc5816111ad565b15611e05576040517f08c379a0000000000000000000000000000000000000000000000000000000008152600401611dfc9061298a565b60405180910390fd5b611e1160008383611aed565b6001600360008473ffffffffffffffffffffffffffffffffffffffff1673ffffffffffffffffffffffffffffffffffffffff1681526020019081526020016000206000828254611e619190612c7e565b92505081905550816002600083815260200190815260200160002060006101000a81548173ffffffffffffffffffffffffffffffffffffffff021916908373ffffffffffffffffffffffffffffffffffffffff160217905550808273ffffffffffffffffffffffffffffffffffffffff16600073ffffffffffffffffffffffffffffffffffffffff167fddf252ad1be2c89b69c2b068fc378daa952ba7f163c4a11628f55a4df523b3ef60405160405180910390a4611f2260008383611af2565b5050565b6000808273ffffffffffffffffffffffffffffffffffffffff163b119050919050565b60606000821415611f91576040518060400160405280600181526020017f300000000000000000000000000000000000000000000000000000000000000081525090506120a5565b600082905060005b60008214611fc3578080611fac90612e52565b915050600a82611fbc9190612cd4565b9150611f99565b60008167ffffffffffffffff811115611fdf57611fde612f88565b5b6040519080825280601f01601f1916602001820160405280156120115781602001600182028036833780820191505090505b5090505b6000851461209e5760018261202a9190612d05565b9150600a856120399190612e9b565b60306120459190612c7e565b60f81b81838151811061205b5761205a612f59565b5b60200101907effffffffffffffffffffffffffffffffffffffffffffffffffffffffffffff1916908160001a905350600a856120979190612cd4565b9450612015565b8093505050505b919050565b8280546120b690612def565b90600052602060002090601f0160209004810192826120d8576000855561211f565b82601f106120f157805160ff191683800117855561211f565b8280016001018555821561211f579182015b8281111561211e578251825591602001919060010190612103565b5b50905061212c9190612130565b5090565b5b80821115612149576000816000905550600101612131565b5090565b600061216061215b84612c0a565b612be5565b90508281526020810184848401111561217c5761217b612fbc565b5b612187848285612dad565b509392505050565b60008135905061219e81613576565b92915050565b6000813590506121b38161358d565b92915050565b6000813590506121c8816135a4565b92915050565b6000815190506121dd816135a4565b92915050565b600082601f8301126121f8576121f7612fb7565b5b813561220884826020860161214d565b91505092915050565b600081359050612220816135bb565b92915050565b60006020828403121561223c5761223b612fc6565b5b600061224a8482850161218f565b91505092915050565b6000806040838503121561226a57612269612fc6565b5b60006122788582860161218f565b92505060206122898582860161218f565b9150509250929050565b6000806000606084860312156122ac576122ab612fc6565b5b60006122ba8682870161218f565b93505060206122cb8682870161218f565b92505060406122dc86828701612211565b9150509250925092565b60008060008060808587031215612300576122ff612fc6565b5b600061230e8782880161218f565b945050602061231f8782880161218f565b935050604061233087828801612211565b925050606085013567ffffffffffffffff81111561235157612350612fc1565b5b61235d878288016121e3565b91505092959194509250565b600080604083850312156123805761237f612fc6565b5b600061238e8582860161218f565b925050602061239f858286016121a4565b9150509250929050565b600080604083850312156123c0576123bf612fc6565b5b60006123ce8582860161218f565b92505060206123df85828601612211565b9150509250929050565b6000602082840312156123ff576123fe612fc6565b5b600061240d848285016121b9565b91505092915050565b60006020828403121561242c5761242b612fc6565b5b600061243a848285016121ce565b91505092915050565b60006020828403121561245957612458612fc6565b5b600061246784828501612211565b91505092915050565b61247981612d39565b82525050565b61248881612d4b565b82525050565b600061249982612c3b565b6124a38185612c51565b93506124b3818560208601612dbc565b6124bc81612fcb565b840191505092915050565b60006124d282612c46565b6124dc8185612c62565b93506124ec818560208601612dbc565b6124f581612fcb565b840191505092915050565b600061250b82612c46565b6125158185612c73565b9350612525818560208601612dbc565b80840191505092915050565b600061253e601683612c62565b915061254982612fdc565b602082019050919050565b6000612561603283612c62565b915061256c82613005565b604082019050919050565b6000612584602683612c62565b915061258f82613054565b604082019050919050565b60006125a7602583612c62565b91506125b2826130a3565b604082019050919050565b60006125ca601c83612c62565b91506125d5826130f2565b602082019050919050565b60006125ed602483612c62565b91506125f88261311b565b604082019050919050565b6000612610601983612c62565b915061261b8261316a565b602082019050919050565b6000612633602c83612c62565b915061263e82613193565b604082019050919050565b6000612656600883612c62565b9150612661826131e2565b602082019050919050565b6000612679603883612c62565b91506126848261320b565b604082019050919050565b600061269c602a83612c62565b91506126a78261325a565b604082019050919050565b60006126bf602983612c62565b91506126ca826132a9565b604082019050919050565b60006126e2602e83612c62565b91506126ed826132f8565b604082019050919050565b6000612705602083612c62565b915061271082613347565b602082019050919050565b6000612728603183612c62565b915061273382613370565b604082019050919050565b600061274b602c83612c62565b9150612756826133bf565b604082019050919050565b600061276e602083612c62565b91506127798261340e565b602082019050919050565b6000612791602f83612c62565b915061279c82613437565b604082019050919050565b60006127b4601683612c62565b91506127bf82613486565b602082019050919050565b60006127d7602183612c62565b91506127e2826134af565b604082019050919050565b60006127fa603183612c62565b9150612805826134fe565b604082019050919050565b600061281d601483612c62565b91506128288261354d565b602082019050919050565b61283c81612da3565b82525050565b600061284e8285612500565b915061285a8284612500565b91508190509392505050565b600060208201905061287b6000830184612470565b92915050565b60006080820190506128966000830187612470565b6128a36020830186612470565b6128b06040830185612833565b81810360608301526128c2818461248e565b905095945050505050565b60006020820190506128e2600083018461247f565b92915050565b6000602082019050818103600083015261290281846124c7565b905092915050565b6000602082019050818103600083015261292381612531565b9050919050565b6000602082019050818103600083015261294381612554565b9050919050565b6000602082019050818103600083015261296381612577565b9050919050565b600060208201905081810360008301526129838161259a565b9050919050565b600060208201905081810360008301526129a3816125bd565b9050919050565b600060208201905081810360008301526129c3816125e0565b9050919050565b600060208201905081810360008301526129e381612603565b9050919050565b60006020820190508181036000830152612a0381612626565b9050919050565b60006020820190508181036000830152612a2381612649565b9050919050565b60006020820190508181036000830152612a438161266c565b9050919050565b60006020820190508181036000830152612a638161268f565b9050919050565b60006020820190508181036000830152612a83816126b2565b9050919050565b60006020820190508181036000830152612aa3816126d5565b9050919050565b60006020820190508181036000830152612ac3816126f8565b9050919050565b60006020820190508181036000830152612ae38161271b565b9050919050565b60006020820190508181036000830152612b038161273e565b9050919050565b60006020820190508181036000830152612b2381612761565b9050919050565b60006020820190508181036000830152612b4381612784565b9050919050565b60006020820190508181036000830152612b63816127a7565b9050919050565b60006020820190508181036000830152612b83816127ca565b9050919050565b60006020820190508181036000830152612ba3816127ed565b9050919050565b60006020820190508181036000830152612bc381612810565b9050919050565b6000602082019050612bdf6000830184612833565b92915050565b6000612bef612c00565b9050612bfb8282612e21565b919050565b6000604051905090565b600067ffffffffffffffff821115612c2557612c24612f88565b5b612c2e82612fcb565b9050602081019050919050565b600081519050919050565b600081519050919050565b600082825260208201905092915050565b600082825260208201905092915050565b600081905092915050565b6000612c8982612da3565b9150612c9483612da3565b9250827fffffffffffffffffffffffffffffffffffffffffffffffffffffffffffffffff03821115612cc957612cc8612ecc565b5b828201905092915050565b6000612cdf82612da3565b9150612cea83612da3565b925082612cfa57612cf9612efb565b5b828204905092915050565b6000612d1082612da3565b9150612d1b83612da3565b925082821015612d2e57612d2d612ecc565b5b828203905092915050565b6000612d4482612d83565b9050919050565b60008115159050919050565b60007fffffffff0000000000000000000000000000000000000000000000000000000082169050919050565b600073ffffffffffffffffffffffffffffffffffffffff82169050919050565b6000819050919050565b82818337600083830152505050565b60005b83811015612dda578082015181840152602081019050612dbf565b83811115612de9576000848401525b50505050565b60006002820490506001821680612e0757607f821691505b60208210811415612e1b57612e1a612f2a565b5b50919050565b612e2a82612fcb565b810181811067ffffffffffffffff82111715612e4957612e48612f88565b5b80604052505050565b6000612e5d82612da3565b91507fffffffffffffffffffffffffffffffffffffffffffffffffffffffffffffffff821415612e9057612e8f612ecc565b5b600182019050919050565b6000612ea682612da3565b9150612eb183612da3565b925082612ec157612ec0612efb565b5b828206905092915050565b7f4e487b7100000000000000000000000000000000000000000000000000000000600052601160045260246000fd5b7f4e487b7100000000000000000000000000000000000000000000000000000000600052601260045260246000fd5b7f4e487b7100000000000000000000000000000000000000000000000000000000600052602260045260246000fd5b7f4e487b7100000000000000000000000000000000000000000000000000000000600052603260045260246000fd5b7f4e487b7100000000000000000000000000000000000000000000000000000000600052604160045260246000fd5b600080fd5b600080fd5b600080fd5b600080fd5b6000601f19601f8301169050919050565b7f54686520707269636520697320696e636f727265637400000000000000000000600082015250565b7f4552433732313a207472616e7366657220746f206e6f6e20455243373231526560008201527f63656976657220696d706c656d656e7465720000000000000000000000000000602082015250565b7f4f776e61626c653a206e6577206f776e657220697320746865207a65726f206160008201527f6464726573730000000000000000000000000000000000000000000000000000602082015250565b7f4552433732313a207472616e736665722066726f6d20696e636f72726563742060008201527f6f776e6572000000000000000000000000000000000000000000000000000000602082015250565b7f4552433732313a20746f6b656e20616c7265616479206d696e74656400000000600082015250565b7f4552433732313a207472616e7366657220746f20746865207a65726f2061646460008201527f7265737300000000000000000000000000000000000000000000000000000000602082015250565b7f4552433732313a20617070726f766520746f2063616c6c657200000000000000600082015250565b7f4552433732313a206f70657261746f7220717565727920666f72206e6f6e657860008201527f697374656e7420746f6b656e0000000000000000000000000000000000000000602082015250565b7f736f6c64206f7574000000000000000000000000000000000000000000000000600082015250565b7f4552433732313a20617070726f76652063616c6c6572206973206e6f74206f7760008201527f6e6572206e6f7220617070726f76656420666f7220616c6c0000000000000000602082015250565b7f4552433732313a2062616c616e636520717565727920666f7220746865207a6560008201527f726f206164647265737300000000000000000000000000000000000000000000602082015250565b7f4552433732313a206f776e657220717565727920666f72206e6f6e657869737460008201527f656e7420746f6b656e0000000000000000000000000000000000000000000000602082015250565b7f45524337323155524953746f726167653a2055524920736574206f66206e6f6e60008201527f6578697374656e7420746f6b656e000000000000000000000000000000000000602082015250565b7f4552433732313a206d696e7420746f20746865207a65726f2061646472657373600082015250565b7f45524337323155524953746f726167653a2055524920717565727920666f722060008201527f6e6f6e6578697374656e7420746f6b656e000000000000000000000000000000602082015250565b7f4552433732313a20617070726f76656420717565727920666f72206e6f6e657860008201527f697374656e7420746f6b656e0000000000000000000000000000000000000000602082015250565b7f4f776e61626c653a2063616c6c6572206973206e6f7420746865206f776e6572600082015250565b7f4552433732314d657461646174613a2055524920717565727920666f72206e6f60008201527f6e6578697374656e7420746f6b656e0000000000000000000000000000000000602082015250565b7f6d696e74696e67206973206e6f7420656e61626c656400000000000000000000600082015250565b7f4552433732313a20617070726f76616c20746f2063757272656e74206f776e6560008201527f7200000000000000000000000000000000000000000000000000000000000000602082015250565b7f4552433732313a207472616e736665722063616c6c6572206973206e6f74206f60008201527f776e6572",
  "deployedBytecode": "0x60806040526004361061014b5760003560e01c80636f8b44b0116100b6578063b88d4fde1161006f578063b88d4fde14610471578063c87b56dd1461049a578063d3dd5fe0146104d7578063d5abeb01146104ee578063e985e9c514610519578063f2fde38b146105565761014b565b80636f8b44b01461037557806370a082311461039e578063715018a6146103db5780638da5cb5b146103f257806395d89b411461041d578063a22cb465146104485761014b565b8063236bc5f011610108578063236bc5f01461025357806323b872dd14610290578063346de50a146102b957806342842e0e146102e45780636352211e1461030d5780636817c76c1461034a5761014b565b806301ffc9a71461015057806306fdde031461018d578063081812fc146101b8578063095ea7b3146101f55780631249c58b1461021e57806318160ddd14610228575b600080fd5b34801561015c57600080fd5b50610177600480360381019061017291906123e9565b61057f565b60405161018491906128cd565b60405180910390f35b34801561019957600080fd5b506101a2610661565b6040516101af91906128e8565b60405180910390f35b3480156101c457600080fd5b506101df60048036038101906101da9190612443565b6106f3565b6040516101ec9190612866565b60405180910390f35b34801561020157600080fd5b5061021c600480360381019061021791906123a9565b610778565b005b610226610890565b005b34801561023457600080fd5b5061023d610a94565b60405161024a9190612bca565b60405180910390f35b34801561025f57600080fd5b5061027a60048036038101906102759190612226565b610a9a565b6040516102879190612bca565b60405180910390f35b34801561029c57600080fd5b506102b760048036038101906102b29190612293565b610ab2565b005b3480156102c557600080fd5b506102ce610b12565b6040516102db91906128cd565b60405180910390f35b3480156102f057600080fd5b5061030b60048036038101906103069190612293565b610b25565b005b34801561031957600080fd5b50610334600480360381019061032f9190612443565b610b45565b6040516103419190612866565b60405180910390f35b34801561035657600080fd5b5061035f610bf7565b60405161036c9190612bca565b60405180910390f35b34801561038157600080fd5b5061039c60048036038101906103979190612443565b610bfd565b005b3480156103aa57600080fd5b506103c560048036038101906103c09190612226565b610c83565b6040516103d29190612bca565b60405180910390f35b3480156103e757600080fd5b506103f0610d3b565b005b3480156103fe57600080fd5b50610407610dc3565b6040516104149190612866565b60405180910390f35b34801561042957600080fd5b50610432610ded565b60405161043f91906128e8565b60405180910390f35b34801561045457600080fd5b5061046f600480360381019061046a9190612369565b610e7f565b005b34801561047d57600080fd5b50610498600480360381019061049391906122e6565b610e95565b005b3480156104a657600080fd5b506104c160048036038101906104bc9190612443565b610ef7565b6040516104ce91906128e8565b60405180910390f35b3480156104e357600080fd5b506104ec610f09565b005b3480156104fa57600080fd5b50610503610fb1565b6040516105109190612bca565b60405180910390f35b34801561052557600080fd5b50610540600480360381019061053b9190612253565b610fb7565b60405161054d91906128cd565b60405180910390f35b34801561056257600080fd5b5061057d60048036038101906105789190612226565b61104b565b005b60007f80ac58cd000000000000000000000000000000000000000000000000000000007bffffffffffffffffffffffffffffffffffffffffffffffffffffffff1916827bffffffffffffffffffffffffffffffffffffffffffffffffffffffff1916148061064a57507f5b5e139f000000000000000000000000000000000000000000000000000000007bffffffffffffffffffffffffffffffffffffffffffffffffffffffff1916827bffffffffffffffffffffffffffffffffffffffffffffffffffffffff1916145b8061065a575061065982611143565b5b9050919050565b60606000805461067090612def565b80601f016020809104026020016040519081016040528092919081815260200182805461069c90612def565b80156106e95780601f106106be576101008083540402835291602001916106e9565b820191906000526020600020905b8154815290600101906020018083116106cc57829003601f168201915b5050505050905090565b60006106fe826111ad565b61073d576040517f08c379a000000000000000000000000000000000000000000000000000000000815260040161073490612aea565b60405180910390fd5b6004600083815260200190815260200160002060009054906101000a900473ffffffffffffffffffffffffffffffffffffffff169050919050565b600061078382610b45565b90508073ffffffffffffffffffffffffffffffffffffffff168373ffffffffffffffffffffffffffffffffffffffff1614156107f4576040517f08c379a00000000000000000000000000000000000000000000000000000000081526004016107eb90612b6a565b60405180910390fd5b8073ffffffffffffffffffffffffffffffffffffffff16610813611219565b73ffffffffffffffffffffffffffffffffffffffff16148061084257506108418161083c611219565b610fb7565b5b610881576040517f08c379a000000000000000000000000000000000000000000000000000000000815260040161087890612a2a565b60405180910390fd5b61088b8383611221565b505050565b600b60009054906101000a900460ff166108df576040517f08c379a00000000000000000000000000000000000000000000000000000000081526004016108d690612b4a565b60405180910390fd5b600a5460095410610925576040517f08c379a000000000000000000000000000000000000000000000000000000000815260040161091c90612a0a565b60405180910390fd5b6005600c60003373ffffffffffffffffffffffffffffffffffffffff1673ffffffffffffffffffffffffffffffffffffffff16815260200190815260200160002054106109a7576040517f08c379a000000000000000000000000000000000000000000000000000000000815260040161099e90612baa565b60405180910390fd5b60085434146109eb576040517f08c379a00000000000000000000000000000000000000000000000000000000081526004016109e29061290a565b60405180910390fd5b60006040518060600160405280603581526020016135d3603591399050600c60003373ffffffffffffffffffffffffffffffffffffffff1673ffffffffffffffffffffffffffffffffffffffff1681526020019081526020016000206000815480929190610a5890612e52565b919050555060096000815480929190610a7090612e52565b919050555060006009549050610a8633826112da565b610a9081836112f8565b5050565b60095481565b600c6020528060005260406000206000915090505481565b610ac3610abd611219565b8261136c565b610b02576040517f08c379a0000000000000000000000000000000000000000000000000000000008152600401610af990612b8a565b60405180910390fd5b610b0d83838361144a565b505050565b600b60009054906101000a900460ff1681565b610b4083838360405180602001604052806000815250610e95565b505050565b6000806002600084815260200190815260200160002060009054906101000a900473ffffffffffffffffffffffffffffffffffffffff169050600073ffffffffffffffffffffffffffffffffffffffff168173ffffffffffffffffffffffffffffffffffffffff161415610bee576040517f08c379a0000000000000000000000000000000000000000000000000000000008152600401610be590612a6a565b60405180910390fd5b80915050919050565b60085481565b610c05611219565b73ffffffffffffffffffffffffffffffffffffffff16610c23610dc3565b73ffffffffffffffffffffffffffffffffffffffff1614610c79576040517f08c379a0000000000000000000000000000000000000000000000000000000008152600401610c7090612b0a565b60405180910390fd5b80600a8190555050565b60008073ffffffffffffffffffffffffffffffffffffffff168273ffffffffffffffffffffffffffffffffffffffff161415610cf4576040517f08c379a0000000000000000000000000000000000000000000000000000000008152600401610ceb90612a4a565b60405180910390fd5b600360008373ffffffffffffffffffffffffffffffffffffffff1673ffffffffffffffffffffffffffffffffffffffff168152602001908152602001600020549050919050565b610d43611219565b73ffffffffffffffffffffffffffffffffffffffff16610d61610dc3565b73ffffffffffffffffffffffffffffffffffffffff1614610db7576040517f08c379a0000000000000000000000000000000000000000000000000000000008152600401610dae90612b0a565b60405180910390fd5b610dc160006116b1565b565b6000600660009054906101000a900473ffffffffffffffffffffffffffffffffffffffff16905090565b606060018054610dfc90612def565b80601f0160208091040260200160405190810160405280929190818152602001828054610e2890612def565b8015610e755780601f10610e4a57610100808354040283529160200191610e75565b820191906000526020600020905b815481529060010190602001808311610e5857829003601f168201915b5050505050905090565b610e91610e8a611219565b8383611777565b5050565b610ea6610ea0611219565b8361136c565b610ee5576040517f08c379a0000000000000000000000000000000000000000000000000000000008152600401610edc90612b8a565b60405180910390fd5b610ef1848484846118e4565b50505050565b6060610f0282611940565b9050919050565b610f11611219565b73ffffffffffffffffffffffffffffffffffffffff16610f2f610dc3565b73ffffffffffffffffffffffffffffffffffffffff1614610f85576040517f08c379a0000000000000000000000000000000000000000000000000000000008152600401610f7c90612b0a565b60405180910390fd5b600b60009054906101000a900460ff1615600b60006101000a81548160ff021916908315150217905550565b600a5481565b6000600560008473ffffffffffffffffffffffffffffffffffffffff1673ffffffffffffffffffffffffffffffffffffffff16815260200190815260200160002060008373ffffffffffffffffffffffffffffffffffffffff1673ffffffffffffffffffffffffffffffffffffffff16815260200190815260200160002060009054906101000a900460ff16905092915050565b611053611219565b73ffffffffffffffffffffffffffffffffffffffff16611071610dc3565b73ffffffffffffffffffffffffffffffffffffffff16146110c7576040517f08c379a00000000000000000000000000000000000000000000000000000000081526004016110be90612b0a565b60405180910390fd5b600073ffffffffffffffffffffffffffffffffffffffff168173ffffffffffffffffffffffffffffffffffffffff161415611137576040517f08c379a000000000000000000000000000000000000000000000000000000000815260040161112e9061294a565b60405180910390fd5b611140816116b1565b50565b60007f01ffc9a7000000000000000000000000000000000000000000000000000000007bffffffffffffffffffffffffffffffffffffffffffffffffffffffff1916827bffffffffffffffffffffffffffffffffffffffffffffffffffffffff1916149050919050565b60008073ffffffffffffffffffffffffffffffffffffffff166002600084815260200190815260200160002060009054906101000a900473ffffffffffffffffffffffffffffffffffffffff1673ffffffffffffffffffffffffffffffffffffffff1614159050919050565b600033905090565b816004600083815260200190815260200160002060006101000a81548173ffffffffffffffffffffffffffffffffffffffff021916908373ffffffffffffffffffffffffffffffffffffffff160217905550808273ffffffffffffffffffffffffffffffffffffffff1661129483610b45565b73ffffffffffffffffffffffffffffffffffffffff167f8c5be1e5ebec7d5bd14f71427d1e84f3dd0314c0f7b2291e5b200ac8c7c3b92560405160405180910390a45050565b6112f4828260405180602001604052806000815250611a92565b5050565b611301826111ad565b611340576040517f08c379a000000000000000000000000000000000000000000000000000000000815260040161133790612a8a565b60405180910390fd5b806007600084815260200190815260200160002090805190602001906113679291906120aa565b505050565b6000611377826111ad565b6113b6576040517f08c379a00000000000000000000000000000000000000000000000000000000081526004016113ad906129ea565b60405180910390fd5b60006113c183610b45565b90508073ffffffffffffffffffffffffffffffffffffffff168473ffffffffffffffffffffffffffffffffffffffff16148061140357506114028185610fb7565b5b8061144157508373ffffffffffffffffffffffffffffffffffffffff16611429846106f3565b73ffffffffffffffffffffffffffffffffffffffff16145b91505092915050565b8273ffffffffffffffffffffffffffffffffffffffff1661146a82610b45565b73ffffffffffffffffffffffffffffffffffffffff16146114c0576040517f08c379a00000000000000000000000000000000000000000000000000000000081526004016114b79061296a565b60405180910390fd5b600073ffffffffffffffffffffffffffffffffffffffff168273ffffffffffffffffffffffffffffffffffffffff161415611530576040517f08c379a0000000000000000000000000000000000000000000000000000000008152600401611527906129aa565b60405180910390fd5b61153b838383611aed565b611546600082611221565b6001600360008573ffffffffffffffffffffffffffffffffffffffff1673ffffffffffffffffffffffffffffffffffffffff16815260200190815260200160002060008282546115969190612d05565b925050819055506001600360008473ffffffffffffffffffffffffffffffffffffffff1673ffffffffffffffffffffffffffffffffffffffff16815260200190815260200160002060008282546115ed9190612c7e565b92505081905550816002600083815260200190815260200160002060006101000a81548173ffffffffffffffffffffffffffffffffffffffff021916908373ffffffffffffffffffffffffffffffffffffffff160217905550808273ffffffffffffffffffffffffffffffffffffffff168473ffffffffffffffffffffffffffffffffffffffff167fddf252ad1be2c89b69c2b068fc378daa952ba7f163c4a11628f55a4df523b3ef60405160405180910390a46116ac838383611af2565b505050565b6000600660009054906101000a900473ffffffffffffffffffffffffffffffffffffffff16905081600660006101000a81548173ffffffffffffffffffffffffffffffffffffffff021916908373ffffffffffffffffffffffffffffffffffffffff1602179055508173ffffffffffffffffffffffffffffffffffffffff168173ffffffffffffffffffffffffffffffffffffffff167f8be0079c531659141344cd1fd0a4f28419497f9722a3daafe3b4186f6b6457e060405160405180910390a35050565b8173ffffffffffffffffffffffffffffffffffffffff168373ffffffffffffffffffffffffffffffffffffffff1614156117e6576040517f08c379a00000000000000000000000000000000000000000000000000000000081526004016117dd906129ca565b60405180910390fd5b80600560008573ffffffffffffffffffffffffffffffffffffffff1673ffffffffffffffffffffffffffffffffffffffff16815260200190815260200160002060008473ffffffffffffffffffffffffffffffffffffffff1673ffffffffffffffffffffffffffffffffffffffff16815260200190815260200160002060006101000a81548160ff0219169083151502179055508173ffffffffffffffffffffffffffffffffffffffff168373ffffffffffffffffffffffffffffffffffffffff167f17307eab39ab6107e8899845ad3d59bd9653f200f220920489ca2b5937696c31836040516118d791906128cd565b60405180910390a3505050565b6118ef84848461144a565b6118fb84848484611af7565b61193a576040517f08c379a00000000000000000000000000000000000000000000000000000000081526004016119319061292a565b60405180910390fd5b50505050565b606061194b826111ad565b61198a576040517f08c379a000000000000000000000000000000000000000000000000000000000815260040161198190612aca565b60405180910390fd5b60006007600084815260200190815260200160002080546119aa90612def565b80601f01602080910402602001604051908101604052809291908181526020018280546119d690612def565b8015611a235780601f106119f857610100808354040283529160200191611a23565b820191906000526020600020905b815481529060010190602001808311611a0657829003601f168201915b505050505090506000611a34611c8e565b9050600081511415611a4a578192505050611a8d565b600082511115611a7f578082604051602001611a67929190612842565b60405160208183030381529060405292505050611a8d565b611a8884611ca5565b925050505b919050565b611a9c8383611d4c565b611aa96000848484611af7565b611ae8576040517f08c379a0000000000000000000000000000000000000000000000000000000008152600401611adf9061292a565b60405180910390fd5b505050565b505050565b505050565b6000611b188473ffffffffffffffffffffffffffffffffffffffff16611f26565b15611c81578373ffffffffffffffffffffffffffffffffffffffff1663150b7a02611b41611219565b8786866040518563ffffffff1660e01b8152600401611b639493929190612881565b602060405180830381600087803b158015611b7d57600080fd5b505af1925050508015611bae57506040513d601f19601f82011682018060405250810190611bab9190612416565b60015b611c31573d8060008114611bde576040519150601f19603f3d011682016040523d82523d6000602084013e611be3565b606091505b50600081511415611c29576040517f08c379a0000000000000000000000000000000000000000000000000000000008152600401611c209061292a565b60405180910390fd5b805181602001fd5b63150b7a0260e01b7bffffffffffffffffffffffffffffffffffffffffffffffffffffffff1916817bffffffffffffffffffffffffffffffffffffffffffffffffffffffff191614915050611c86565b600190505b949350505050565b606060405180602001604052806000815250905090565b6060611cb0826111ad565b611cef576040517f08c379a0000000000000000000000000000000000000000000000000000000008152600401611ce690612b2a565b60405180910390fd5b6000611cf9611c8e565b90506000815111611d195760405180602001604052806000815250611d44565b80611d2384611f49565b604051602001611d34929190612842565b6040516020818303038152906040525b915050919050565b600073ffffffffffffffffffffffffffffffffffffffff168273ffffffffffffffffffffffffffffffffffffffff161415611dbc576040517f08c379a0000000000000000000000000000000000000000000000000000000008152600401611db390612aaa565b60405180910390fd5b611dc5816111ad565b15611e05576040517f08c379a0000000000000000000000000000000000000000000000000000000008152600401611dfc9061298a565b60405180910390fd5b611e1160008383611aed565b6001600360008473ffffffffffffffffffffffffffffffffffffffff1673ffffffffffffffffffffffffffffffffffffffff1681526020019081526020016000206000828254611e619190612c7e565b92505081905550816002600083815260200190815260200160002060006101000a81548173ffffffffffffffffffffffffffffffffffffffff021916908373ffffffffffffffffffffffffffffffffffffffff160217905550808273ffffffffffffffffffffffffffffffffffffffff16600073ffffffffffffffffffffffffffffffffffffffff167fddf252ad1be2c89b69c2b068fc378daa952ba7f163c4a11628f55a4df523b3ef60405160405180910390a4611f2260008383611af2565b5050565b6000808273ffffffffffffffffffffffffffffffffffffffff163b119050919050565b60606000821415611f91576040518060400160405280600181526020017f300000000000000000000000000000000000000000000000000000000000000081525090506120a5565b600082905060005b60008214611fc3578080611fac90612e52565b915050600a82611fbc9190612cd4565b9150611f99565b60008167ffffffffffffffff811115611fdf57611fde612f88565b5b6040519080825280601f01601f1916602001820160405280156120115781602001600182028036833780820191505090505b5090505b6000851461209e5760018261202a9190612d05565b9150600a856120399190612e9b565b60306120459190612c7e565b60f81b81838151811061205b5761205a612f59565b5b60200101907effffffffffffffffffffffffffffffffffffffffffffffffffffffffffffff1916908160001a905350600a856120979190612cd4565b9450612015565b8093505050505b919050565b8280546120b690612def565b90600052602060002090601f0160209004810192826120d8576000855561211f565b82601f106120f157805160ff191683800117855561211f565b8280016001018555821561211f579182015b8281111561211e578251825591602001919060010190612103565b5b50905061212c9190612130565b5090565b5b80821115612149576000816000905550600101612131565b5090565b600061216061215b84612c0a565b612be5565b90508281526020810184848401111561217c5761217b612fbc565b5b612187848285612dad565b509392505050565b60008135905061219e81613576565b92915050565b6000813590506121b38161358d565b92915050565b6000813590506121c8816135a4565b92915050565b6000815190506121dd816135a4565b92915050565b600082601f8301126121f8576121f7612fb7565b5b813561220884826020860161214d565b91505092915050565b600081359050612220816135bb565b92915050565b60006020828403121561223c5761223b612fc6565b5b600061224a8482850161218f565b91505092915050565b6000806040838503121561226a57612269612fc6565b5b60006122788582860161218f565b92505060206122898582860161218f565b9150509250929050565b6000806000606084860312156122ac576122ab612fc6565b5b60006122ba8682870161218f565b93505060206122cb8682870161218f565b92505060406122dc86828701612211565b9150509250925092565b60008060008060808587031215612300576122ff612fc6565b5b600061230e8782880161218f565b945050602061231f8782880161218f565b935050604061233087828801612211565b925050606085013567ffffffffffffffff81111561235157612350612fc1565b5b61235d878288016121e3565b91505092959194509250565b600080604083850312156123805761237f612fc6565b5b600061238e8582860161218f565b925050602061239f858286016121a4565b9150509250929050565b600080604083850312156123c0576123bf612fc6565b5b60006123ce8582860161218f565b92505060206123df85828601612211565b9150509250929050565b6000602082840312156123ff576123fe612fc6565b5b600061240d848285016121b9565b91505092915050565b60006020828403121561242c5761242b612fc6565b5b600061243a848285016121ce565b91505092915050565b60006020828403121561245957612458612fc6565b5b600061246784828501612211565b91505092915050565b61247981612d39565b82525050565b61248881612d4b565b82525050565b600061249982612c3b565b6124a38185612c51565b93506124b3818560208601612dbc565b6124bc81612fcb565b840191505092915050565b60006124d282612c46565b6124dc8185612c62565b93506124ec818560208601612dbc565b6124f581612fcb565b840191505092915050565b600061250b82612c46565b6125158185612c73565b9350612525818560208601612dbc565b80840191505092915050565b600061253e601683612c62565b915061254982612fdc565b602082019050919050565b6000612561603283612c62565b915061256c82613005565b604082019050919050565b6000612584602683612c62565b915061258f82613054565b604082019050919050565b60006125a7602583612c62565b91506125b2826130a3565b604082019050919050565b60006125ca601c83612c62565b91506125d5826130f2565b602082019050919050565b60006125ed602483612c62565b91506125f88261311b565b604082019050919050565b6000612610601983612c62565b915061261b8261316a565b602082019050919050565b6000612633602c83612c62565b915061263e82613193565b604082019050919050565b6000612656600883612c62565b9150612661826131e2565b602082019050919050565b6000612679603883612c62565b91506126848261320b565b604082019050919050565b600061269c602a83612c62565b91506126a78261325a565b604082019050919050565b60006126bf602983612c62565b91506126ca826132a9565b604082019050919050565b60006126e2602e83612c62565b91506126ed826132f8565b604082019050919050565b6000612705602083612c62565b915061271082613347565b602082019050919050565b6000612728603183612c62565b915061273382613370565b604082019050919050565b600061274b602c83612c62565b9150612756826133bf565b604082019050919050565b600061276e602083612c62565b91506127798261340e565b602082019050919050565b6000612791602f83612c62565b915061279c82613437565b604082019050919050565b60006127b4601683612c62565b91506127bf82613486565b602082019050919050565b60006127d7602183612c62565b91506127e2826134af565b604082019050919050565b60006127fa603183612c62565b9150612805826134fe565b604082019050919050565b600061281d601483612c62565b91506128288261354d565b602082019050919050565b61283c81612da3565b82525050565b600061284e8285612500565b915061285a8284612500565b91508190509392505050565b600060208201905061287b6000830184612470565b92915050565b60006080820190506128966000830187612470565b6128a36020830186612470565b6128b06040830185612833565b81810360608301526128c2818461248e565b905095945050505050565b60006020820190506128e2600083018461247f565b92915050565b6000602082019050818103600083015261290281846124c7565b905092915050565b6000602082019050818103600083015261292381612531565b9050919050565b6000602082019050818103600083015261294381612554565b9050919050565b6000602082019050818103600083015261296381612577565b9050919050565b600060208201905081810360008301526129838161259a565b9050919050565b600060208201905081810360008301526129a3816125bd565b9050919050565b600060208201905081810360008301526129c3816125e0565b9050919050565b600060208201905081810360008301526129e381612603565b9050919050565b60006020820190508181036000830152612a0381612626565b9050919050565b60006020820190508181036000830152612a2381612649565b9050919050565b60006020820190508181036000830152612a438161266c565b9050919050565b60006020820190508181036000830152612a638161268f565b9050919050565b60006020820190508181036000830152612a83816126b2565b9050919050565b60006020820190508181036000830152612aa3816126d5565b9050919050565b60006020820190508181036000830152612ac3816126f8565b9050919050565b60006020820190508181036000830152612ae38161271b565b9050919050565b60006020820190508181036000830152612b038161273e565b9050919050565b60006020820190508181036000830152612b2381612761565b9050919050565b60006020820190508181036000830152612b4381612784565b9050919050565b60006020820190508181036000830152612b63816127a7565b9050919050565b60006020820190508181036000830152612b83816127ca565b9050919050565b60006020820190508181036000830152612ba3816127ed565b9050919050565b60006020820190508181036000830152612bc381612810565b9050919050565b6000602082019050612bdf6000830184612833565b92915050565b6000612bef612c00565b9050612bfb8282612e21565b919050565b6000604051905090565b600067ffffffffffffffff821115612c2557612c24612f88565b5b612c2e82612fcb565b9050602081019050919050565b600081519050919050565b600081519050919050565b600082825260208201905092915050565b600082825260208201905092915050565b600081905092915050565b6000612c8982612da3565b9150612c9483612da3565b9250827fffffffffffffffffffffffffffffffffffffffffffffffffffffffffffffffff03821115612cc957612cc8612ecc565b5b828201905092915050565b6000612cdf82612da3565b9150612cea83612da3565b925082612cfa57612cf9612efb565b5b828204905092915050565b6000612d1082612da3565b9150612d1b83612da3565b925082821015612d2e57612d2d612ecc565b5b828203905092915050565b6000612d4482612d83565b9050919050565b60008115159050919050565b60007fffffffff0000000000000000000000000000000000000000000000000000000082169050919050565b600073ffffffffffffffffffffffffffffffffffffffff82169050919050565b6000819050919050565b82818337600083830152505050565b60005b83811015612dda578082015181840152602081019050612dbf565b83811115612de9576000848401525b50505050565b60006002820490506001821680612e0757607f821691505b60208210811415612e1b57612e1a612f2a565b5b50919050565b612e2a82612fcb565b810181811067ffffffffffffffff82111715612e4957612e48612f88565b5b80604052505050565b6000612e5d82612da3565b91507fffffffffffffffffffffffffffffffffffffffffffffffffffffffffffffffff821415612e9057612e8f612ecc565b5b600182019050919050565b6000612ea682612da3565b9150612eb183612da3565b925082612ec157612ec0612efb565b5b828206905092915050565b7f4e487b7100000000000000000000000000000000000000000000000000000000600052601160045260246000fd5b7f4e487b7100000000000000000000000000000000000000000000000000000000600052601260045260246000fd5b7f4e487b7100000000000000000000000000000000000000000000000000000000600052602260045260246000fd5b7f4e487b7100000000000000000000000000000000000000000000000000000000600052603260045260246000fd5b7f4e487b7100000000000000000000000000000000000000000000000000000000600052604160045260246000fd5b600080fd5b600080fd5b600080fd5b600080fd5b6000601f19601f8301169050919050565b7f54686520707269636520697320696e636f727265637400000000000000000000600082015250565b7f4552433732313a207472616e7366657220746f206e6f6e20455243373231526560008201527f63656976657220696d706c656d656e7465720000000000000000000000000000602082015250565b7f4f776e61626c653a206e6577206f776e657220697320746865207a65726f206160008201527f6464726573730000000000000000000000000000000000000000000000000000602082015250565b7f4552433732313a207472616e736665722066726f6d20696e636f72726563742060008201527f6f776e6572000000000000000000000000000000000000000000000000000000602082015250565b7f4552433732313a20746f6b656e20616c7265616479206d696e74656400000000600082015250565b7f4552433732313a207472616e7366657220746f20746865207a65726f2061646460008201527f7265737300000000000000000000000000000000000000000000000000000000602082015250565b7f4552433732313a20617070726f766520746f2063616c6c657200000000000000600082015250565b7f4552433732313a206f70657261746f7220717565727920666f72206e6f6e657860008201527f697374656e7420746f6b656e0000000000000000000000000000000000000000602082015250565b7f736f6c64206f7574000000000000000000000000000000000000000000000000600082015250565b7f4552433732313a20617070726f76652063616c6c6572206973206e6f74206f7760008201527f6e6572206e6f7220617070726f76656420666f7220616c6c0000000000000000602082015250565b7f4552433732313a2062616c616e636520717565727920666f7220746865207a6560008201527f726f206164647265737300000000000000000000000000000000000000000000602082015250565b7f4552433732313a206f776e657220717565727920666f72206e6f6e657869737460008201527f656e7420746f6b656e0000000000000000000000000000000000000000000000602082015250565b7f45524337323155524953746f726167653a2055524920736574206f66206e6f6e60008201527f6578697374656e7420746f6b656e000000000000000000000000000000000000602082015250565b7f4552433732313a206d696e7420746f20746865207a65726f2061646472657373600082015250565b7f45524337323155524953746f726167653a2055524920717565727920666f722060008201527f6e6f6e6578697374656e7420746f6b656e000000000000000000000000000000602082015250565b7f4552433732313a20617070726f76656420717565727920666f72206e6f6e657860008201527f697374656e7420746f6b656e0000000000000000000000000000000000000000602082015250565b7f4f776e61626c653a2063616c6c6572206973206e6f7420746865206f776e6572600082015250565b7f4552433732314d657461646174613a2055524920717565727920666f72206e6f60008201527f6e6578697374656e7420746f6b656e0000000000000000000000000000000000602082015250565b7f6d696e74696e67206973206e6f7420656e61626c656400000000000000000000600082015250565b7f4552433732313a20617070726f76616c20746f2063757272656e74206f776e6560008201527f7200000000000000000000000000000000000000000000000000000000000000602082015250565b7f4552433732313a207472616e736665722063616c6c6572206973206e6f74206f60008201527f776e6572206e6f7220617070726f766564000000000000000000000000000000602082015250565b7f6f6e6c792066697665207065722077616c6c6574000000000000000000000000600082015250565b61357f81612d39565b811461358a57600080fd5b50565b61359681612d4b565b81146135a157600080fd5b50565b6135ad81612d57565b81146135b857600080fd5b50565b6135c481612da3565b81146135cf57600080fd5b5056fe697066733a2f2f516d664272726e7a6a75466e783552436335596b51526e343566424b7656636b6873664a7079714b6d6d6f677531a2646970667358221220098e2a90f9cb81d7b069758d88aba1c77c1be34b027cde781c8fa4cfbebff87964736f6c63430008070033",
  "linkReferences": {},
  "deployedLinkReferences": {}
}