{
  "_format": "hh-sol-artifact-1",
  "contractName": "UNCCMINTCONTRACT",
  "sourceName": "contracts/UNCCMINTCONTRACT.sol",
  "abi": [
    {
      "inputs": [],
      "stateMutability": "payable",
      "type": "constructor"
    },
    {
      "anonymous": false,
      "inputs": [
        {
          "indexed": true,
          "internalType": "address",
          "name": "owner",
          "type": "address"
        },
        {
          "indexed": true,
          "internalType": "address",
          "name": "approved",
          "type": "address"
        },
        {
          "indexed": true,
          "internalType": "uint256",
          "name": "tokenId",
          "type": "uint256"
        }
      ],
      "name": "Approval",
      "type": "event"
    },
    {
      "anonymous": false,
      "inputs": [
        {
          "indexed": true,
          "internalType": "address",
          "name": "owner",
          "type": "address"
        },
        {
          "indexed": true,
          "internalType": "address",
          "name": "operator",
          "type": "address"
        },
        {
          "indexed": false,
          "internalType": "bool",
          "name": "approved",
          "type": "bool"
        }
      ],
      "name": "ApprovalForAll",
      "type": "event"
    },
    {
      "anonymous": false,
      "inputs": [
        {
          "indexed": true,
          "internalType": "address",
          "name": "previousOwner",
          "type": "address"
        },
        {
          "indexed": true,
          "internalType": "address",
          "name": "newOwner",
          "type": "address"
        }
      ],
      "name": "OwnershipTransferred",
      "type": "event"
    },
    {
      "anonymous": false,
      "inputs": [
        {
          "indexed": true,
          "internalType": "address",
          "name": "from",
          "type": "address"
        },
        {
          "indexed": true,
          "internalType": "address",
          "name": "to",
          "type": "address"
        },
        {
          "indexed": true,
          "internalType": "uint256",
          "name": "tokenId",
          "type": "uint256"
        }
      ],
      "name": "Transfer",
      "type": "event"
    },
    {
      "inputs": [
        {
          "internalType": "address",
          "name": "to",
          "type": "address"
        },
        {
          "internalType": "uint256",
          "name": "tokenId",
          "type": "uint256"
        }
      ],
      "name": "approve",
      "outputs": [],
      "stateMutability": "nonpayable",
      "type": "function"
    },
    {
      "inputs": [
        {
          "internalType": "address",
          "name": "owner",
          "type": "address"
        }
      ],
      "name": "balanceOf",
      "outputs": [
        {
          "internalType": "uint256",
          "name": "",
          "type": "uint256"
        }
      ],
      "stateMutability": "view",
      "type": "function"
    },
    {
      "inputs": [],
      "name": "checkMint",
      "outputs": [
        {
          "internalType": "bool",
          "name": "",
          "type": "bool"
        }
      ],
      "stateMutability": "view",
      "type": "function"
    },
    {
      "inputs": [
        {
          "internalType": "uint256",
          "name": "tokenId",
          "type": "uint256"
        }
      ],
      "name": "getApproved",
      "outputs": [
        {
          "internalType": "address",
          "name": "",
          "type": "address"
        }
      ],
      "stateMutability": "view",
      "type": "function"
    },
    {
      "inputs": [
        {
          "internalType": "address",
          "name": "owner",
          "type": "address"
        },
        {
          "internalType": "address",
          "name": "operator",
          "type": "address"
        }
      ],
      "name": "isApprovedForAll",
      "outputs": [
        {
          "internalType": "bool",
          "name": "",
          "type": "bool"
        }
      ],
      "stateMutability": "view",
      "type": "function"
    },
    {
      "inputs": [],
      "name": "isMintEnabled",
      "outputs": [
        {
          "internalType": "bool",
          "name": "",
          "type": "bool"
        }
      ],
      "stateMutability": "view",
      "type": "function"
    },
    {
      "inputs": [],
      "name": "maxSupply",
      "outputs": [
        {
          "internalType": "uint256",
          "name": "",
          "type": "uint256"
        }
      ],
      "stateMutability": "view",
      "type": "function"
    },
    {
      "inputs": [],
      "name": "mint",
      "outputs": [],
      "stateMutability": "payable",
      "type": "function"
    },
    {
      "inputs": [],
      "name": "mintPrice",
      "outputs": [
        {
          "internalType": "uint256",
          "name": "",
          "type": "uint256"
        }
      ],
      "stateMutability": "view",
      "type": "function"
    },
    {
      "inputs": [
        {
          "internalType": "address",
          "name": "",
          "type": "address"
        }
      ],
      "name": "mintedWallet",
      "outputs": [
        {
          "internalType": "uint256",
          "name": "",
          "type": "uint256"
        }
      ],
      "stateMutability": "view",
      "type": "function"
    },
    {
      "inputs": [],
      "name": "name",
      "outputs": [
        {
          "internalType": "string",
          "name": "",
          "type": "string"
        }
      ],
      "stateMutability": "view",
      "type": "function"
    },
    {
      "inputs": [],
      "name": "owner",
      "outputs": [
        {
          "internalType": "address",
          "name": "",
          "type": "address"
        }
      ],
      "stateMutability": "view",
      "type": "function"
    },
    {
      "inputs": [
        {
          "internalType": "uint256",
          "name": "tokenId",
          "type": "uint256"
        }
      ],
      "name": "ownerOf",
      "outputs": [
        {
          "internalType": "address",
          "name": "",
          "type": "address"
        }
      ],
      "stateMutability": "view",
      "type": "function"
    },
    {
      "inputs": [],
      "name": "pricePerToken",
      "outputs": [
        {
          "internalType": "uint256",
          "name": "",
          "type": "uint256"
        }
      ],
      "stateMutability": "view",
      "type": "function"
    },
    {
      "inputs": [],
      "name": "renounceOwnership",
      "outputs": [],
      "stateMutability": "nonpayable",
      "type": "function"
    },
    {
      "inputs": [
        {
          "internalType": "address",
          "name": "from",
          "type": "address"
        },
        {
          "internalType": "address",
          "name": "to",
          "type": "address"
        },
        {
          "internalType": "uint256",
          "name": "tokenId",
          "type": "uint256"
        }
      ],
      "name": "safeTransferFrom",
      "outputs": [],
      "stateMutability": "nonpayable",
      "type": "function"
    },
    {
      "inputs": [
        {
          "internalType": "address",
          "name": "from",
          "type": "address"
        },
        {
          "internalType": "address",
          "name": "to",
          "type": "address"
        },
        {
          "internalType": "uint256",
          "name": "tokenId",
          "type": "uint256"
        },
        {
          "internalType": "bytes",
          "name": "_data",
          "type": "bytes"
        }
      ],
      "name": "safeTransferFrom",
      "outputs": [],
      "stateMutability": "nonpayable",
      "type": "function"
    },
    {
      "inputs": [
        {
          "internalType": "address",
          "name": "operator",
          "type": "address"
        },
        {
          "internalType": "bool",
          "name": "approved",
          "type": "bool"
        }
      ],
      "name": "setApprovalForAll",
      "outputs": [],
      "stateMutability": "nonpayable",
      "type": "function"
    },
    {
      "inputs": [
        {
          "internalType": "uint256",
          "name": "_maxSupply",
          "type": "uint256"
        }
      ],
      "name": "setMaxSupply",
      "outputs": [],
      "stateMutability": "nonpayable",
      "type": "function"
    },
    {
      "inputs": [],
      "name": "supplyRemaining",
      "outputs": [
        {
          "internalType": "uint256",
          "name": "",
          "type": "uint256"
        }
      ],
      "stateMutability": "view",
      "type": "function"
    },
    {
      "inputs": [
        {
          "internalType": "bytes4",
          "name": "interfaceId",
          "type": "bytes4"
        }
      ],
      "name": "supportsInterface",
      "outputs": [
        {
          "internalType": "bool",
          "name": "",
          "type": "bool"
        }
      ],
      "stateMutability": "view",
      "type": "function"
    },
    {
      "inputs": [],
      "name": "symbol",
      "outputs": [
        {
          "internalType": "string",
          "name": "",
          "type": "string"
        }
      ],
      "stateMutability": "view",
      "type": "function"
    },
    {
      "inputs": [],
      "name": "toggleMint",
      "outputs": [],
      "stateMutability": "nonpayable",
      "type": "function"
    },
    {
      "inputs": [
        {
          "internalType": "uint256",
          "name": "tokenId",
          "type": "uint256"
        }
      ],
      "name": "tokenURI",
      "outputs": [
        {
          "internalType": "string",
          "name": "",
          "type": "string"
        }
      ],
      "stateMutability": "view",
      "type": "function"
    },
    {
      "inputs": [],
      "name": "totalSupply",
      "outputs": [
        {
          "internalType": "uint256",
          "name": "",
          "type": "uint256"
        }
      ],
      "stateMutability": "view",
      "type": "function"
    },
    {
      "inputs": [
        {
          "internalType": "address",
          "name": "from",
          "type": "address"
        },
        {
          "internalType": "address",
          "name": "to",
          "type": "address"
        },
        {
          "internalType": "uint256",
          "name": "tokenId",
          "type": "uint256"
        }
      ],
      "name": "transferFrom",
      "outputs": [],
      "stateMutability": "nonpayable",
      "type": "function"
    },
    {
      "inputs": [
        {
          "internalType": "address",
          "name": "newOwner",
          "type": "address"
        }
      ],
      "name": "transferOwnership",
      "outputs": [],
      "stateMutability": "nonpayable",
      "type": "function"
    }
  ],
  "bytecode": "608060405266b1a2bc2ec500006008556040518060400160405280600881526020017f554e43434d494e540000000000000000000000000000000000000000000000008152506040518060400160405280600481526020017f554e434d00000000000000000000000000000000000000000000000000000000815250816000908051906020019062000093929190620001ad565b508060019080519060200190620000ac929190620001ad565b505050620000cf620000c3620000df60201b60201c565b620000e760201b60201c565b620186a0600a81905550620002c2565b600033905090565b6000600660009054906101000a900473ffffffffffffffffffffffffffffffffffffffff16905081600660006101000a81548173ffffffffffffffffffffffffffffffffffffffff021916908373ffffffffffffffffffffffffffffffffffffffff1602179055508173ffffffffffffffffffffffffffffffffffffffff168173ffffffffffffffffffffffffffffffffffffffff167f8be0079c531659141344cd1fd0a4f28419497f9722a3daafe3b4186f6b6457e060405160405180910390a35050565b828054620001bb906200025d565b90600052602060002090601f016020900481019282620001df57600085556200022b565b82601f10620001fa57805160ff19168380011785556200022b565b828001600101855582156200022b579182015b828111156200022a5782518255916020019190600101906200020d565b5b5090506200023a91906200023e565b5090565b5b80821115620002595760008160009055506001016200023f565b5090565b600060028204905060018216806200027657607f821691505b602082108114156200028d576200028c62000293565b5b50919050565b7f4e487b7100000000000000000000000000000000000000000000000000000000600052602260045260246000fd5b61374780620002d26000396000f3fe60806040526004361061019c5760003560e01c80636f8b44b0116100ec578063b88d4fde1161008a578063d5abeb0111610064578063d5abeb0114610595578063e210b7d1146105c0578063e985e9c5146105eb578063f2fde38b146106285761019c565b8063b88d4fde14610518578063c87b56dd14610541578063d3dd5fe01461057e5761019c565b80637b1b1de6116100c65780637b1b1de61461046e5780638da5cb5b1461049957806395d89b41146104c4578063a22cb465146104ef5761019c565b80636f8b44b0146103f157806370a082311461041a578063715018a6146104575761019c565b8063236bc5f0116101595780633e38fe80116101335780633e38fe801461033557806342842e0e146103605780636352211e146103895780636817c76c146103c65761019c565b8063236bc5f0146102a457806323b872dd146102e1578063346de50a1461030a5761019c565b806301ffc9a7146101a157806306fdde03146101de578063081812fc14610209578063095ea7b3146102465780631249c58b1461026f57806318160ddd14610279575b600080fd5b3480156101ad57600080fd5b506101c860048036038101906101c391906124f3565b610651565b6040516101d591906129d7565b60405180910390f35b3480156101ea57600080fd5b506101f3610733565b60405161020091906129f2565b60405180910390f35b34801561021557600080fd5b50610230600480360381019061022b919061254d565b6107c5565b60405161023d9190612970565b60405180910390f35b34801561025257600080fd5b5061026d600480360381019061026891906124b3565b61084a565b005b610277610962565b005b34801561028557600080fd5b5061028e610b66565b60405161029b9190612cd4565b60405180910390f35b3480156102b057600080fd5b506102cb60048036038101906102c69190612330565b610b6c565b6040516102d89190612cd4565b60405180910390f35b3480156102ed57600080fd5b506103086004803603810190610303919061239d565b610b84565b005b34801561031657600080fd5b5061031f610be4565b60405161032c91906129d7565b60405180910390f35b34801561034157600080fd5b5061034a610bf7565b6040516103579190612cd4565b60405180910390f35b34801561036c57600080fd5b506103876004803603810190610382919061239d565b610c0e565b005b34801561039557600080fd5b506103b060048036038101906103ab919061254d565b610c2e565b6040516103bd9190612970565b60405180910390f35b3480156103d257600080fd5b506103db610ce0565b6040516103e89190612cd4565b60405180910390f35b3480156103fd57600080fd5b506104186004803603810190610413919061254d565b610ce6565b005b34801561042657600080fd5b50610441600480360381019061043c9190612330565b610d6c565b60405161044e9190612cd4565b60405180910390f35b34801561046357600080fd5b5061046c610e24565b005b34801561047a57600080fd5b50610483610eac565b6040516104909190612cd4565b60405180910390f35b3480156104a557600080fd5b506104ae610eb6565b6040516104bb9190612970565b60405180910390f35b3480156104d057600080fd5b506104d9610ee0565b6040516104e691906129f2565b60405180910390f35b3480156104fb57600080fd5b5061051660048036038101906105119190612473565b610f72565b005b34801561052457600080fd5b5061053f600480360381019061053a91906123f0565b610f88565b005b34801561054d57600080fd5b506105686004803603810190610563919061254d565b610fea565b60405161057591906129f2565b60405180910390f35b34801561058a57600080fd5b50610593610ffc565b005b3480156105a157600080fd5b506105aa6110a4565b6040516105b79190612cd4565b60405180910390f35b3480156105cc57600080fd5b506105d56110aa565b6040516105e291906129d7565b60405180910390f35b3480156105f757600080fd5b50610612600480360381019061060d919061235d565b6110c1565b60405161061f91906129d7565b60405180910390f35b34801561063457600080fd5b5061064f600480360381019061064a9190612330565b611155565b005b60007f80ac58cd000000000000000000000000000000000000000000000000000000007bffffffffffffffffffffffffffffffffffffffffffffffffffffffff1916827bffffffffffffffffffffffffffffffffffffffffffffffffffffffff1916148061071c57507f5b5e139f000000000000000000000000000000000000000000000000000000007bffffffffffffffffffffffffffffffffffffffffffffffffffffffff1916827bffffffffffffffffffffffffffffffffffffffffffffffffffffffff1916145b8061072c575061072b8261124d565b5b9050919050565b60606000805461074290612ef9565b80601f016020809104026020016040519081016040528092919081815260200182805461076e90612ef9565b80156107bb5780601f10610790576101008083540402835291602001916107bb565b820191906000526020600020905b81548152906001019060200180831161079e57829003601f168201915b5050505050905090565b60006107d0826112b7565b61080f576040517f08c379a000000000000000000000000000000000000000000000000000000000815260040161080690612bf4565b60405180910390fd5b6004600083815260200190815260200160002060009054906101000a900473ffffffffffffffffffffffffffffffffffffffff169050919050565b600061085582610c2e565b90508073ffffffffffffffffffffffffffffffffffffffff168373ffffffffffffffffffffffffffffffffffffffff1614156108c6576040517f08c379a00000000000000000000000000000000000000000000000000000000081526004016108bd90612c74565b60405180910390fd5b8073ffffffffffffffffffffffffffffffffffffffff166108e5611323565b73ffffffffffffffffffffffffffffffffffffffff16148061091457506109138161090e611323565b6110c1565b5b610953576040517f08c379a000000000000000000000000000000000000000000000000000000000815260040161094a90612b34565b60405180910390fd5b61095d838361132b565b505050565b600b60009054906101000a900460ff166109b1576040517f08c379a00000000000000000000000000000000000000000000000000000000081526004016109a890612c54565b60405180910390fd5b600a54600954106109f7576040517f08c379a00000000000000000000000000000000000000000000000000000000081526004016109ee90612b14565b60405180910390fd5b6005600c60003373ffffffffffffffffffffffffffffffffffffffff1673ffffffffffffffffffffffffffffffffffffffff1681526020019081526020016000205410610a79576040517f08c379a0000000000000000000000000000000000000000000000000000000008152600401610a7090612cb4565b60405180910390fd5b6008543414610abd576040517f08c379a0000000000000000000000000000000000000000000000000000000008152600401610ab490612a14565b60405180910390fd5b60006040518060600160405280603581526020016136dd603591399050600c60003373ffffffffffffffffffffffffffffffffffffffff1673ffffffffffffffffffffffffffffffffffffffff1681526020019081526020016000206000815480929190610b2a90612f5c565b919050555060096000815480929190610b4290612f5c565b919050555060006009549050610b5833826113e4565b610b628183611402565b5050565b60095481565b600c6020528060005260406000206000915090505481565b610b95610b8f611323565b82611476565b610bd4576040517f08c379a0000000000000000000000000000000000000000000000000000000008152600401610bcb90612c94565b60405180910390fd5b610bdf838383611554565b505050565b600b60009054906101000a900460ff1681565b6000600954600a54610c099190612e0f565b905090565b610c2983838360405180602001604052806000815250610f88565b505050565b6000806002600084815260200190815260200160002060009054906101000a900473ffffffffffffffffffffffffffffffffffffffff169050600073ffffffffffffffffffffffffffffffffffffffff168173ffffffffffffffffffffffffffffffffffffffff161415610cd7576040517f08c379a0000000000000000000000000000000000000000000000000000000008152600401610cce90612b74565b60405180910390fd5b80915050919050565b60085481565b610cee611323565b73ffffffffffffffffffffffffffffffffffffffff16610d0c610eb6565b73ffffffffffffffffffffffffffffffffffffffff1614610d62576040517f08c379a0000000000000000000000000000000000000000000000000000000008152600401610d5990612c14565b60405180910390fd5b80600a8190555050565b60008073ffffffffffffffffffffffffffffffffffffffff168273ffffffffffffffffffffffffffffffffffffffff161415610ddd576040517f08c379a0000000000000000000000000000000000000000000000000000000008152600401610dd490612b54565b60405180910390fd5b600360008373ffffffffffffffffffffffffffffffffffffffff1673ffffffffffffffffffffffffffffffffffffffff168152602001908152602001600020549050919050565b610e2c611323565b73ffffffffffffffffffffffffffffffffffffffff16610e4a610eb6565b73ffffffffffffffffffffffffffffffffffffffff1614610ea0576040517f08c379a0000000000000000000000000000000000000000000000000000000008152600401610e9790612c14565b60405180910390fd5b610eaa60006117bb565b565b6000600854905090565b6000600660009054906101000a900473ffffffffffffffffffffffffffffffffffffffff16905090565b606060018054610eef90612ef9565b80601f0160208091040260200160405190810160405280929190818152602001828054610f1b90612ef9565b8015610f685780601f10610f3d57610100808354040283529160200191610f68565b820191906000526020600020905b815481529060010190602001808311610f4b57829003601f168201915b5050505050905090565b610f84610f7d611323565b8383611881565b5050565b610f99610f93611323565b83611476565b610fd8576040517f08c379a0000000000000000000000000000000000000000000000000000000008152600401610fcf90612c94565b60405180910390fd5b610fe4848484846119ee565b50505050565b6060610ff582611a4a565b9050919050565b611004611323565b73ffffffffffffffffffffffffffffffffffffffff16611022610eb6565b73ffffffffffffffffffffffffffffffffffffffff1614611078576040517f08c379a000000000000000000000000000000000000000000000000000000000815260040161106f90612c14565b60405180910390fd5b600b60009054906101000a900460ff1615600b60006101000a81548160ff021916908315150217905550565b600a5481565b6000600b60009054906101000a900460ff16905090565b6000600560008473ffffffffffffffffffffffffffffffffffffffff1673ffffffffffffffffffffffffffffffffffffffff16815260200190815260200160002060008373ffffffffffffffffffffffffffffffffffffffff1673ffffffffffffffffffffffffffffffffffffffff16815260200190815260200160002060009054906101000a900460ff16905092915050565b61115d611323565b73ffffffffffffffffffffffffffffffffffffffff1661117b610eb6565b73ffffffffffffffffffffffffffffffffffffffff16146111d1576040517f08c379a00000000000000000000000000000000000000000000000000000000081526004016111c890612c14565b60405180910390fd5b600073ffffffffffffffffffffffffffffffffffffffff168173ffffffffffffffffffffffffffffffffffffffff161415611241576040517f08c379a000000000000000000000000000000000000000000000000000000000815260040161123890612a54565b60405180910390fd5b61124a816117bb565b50565b60007f01ffc9a7000000000000000000000000000000000000000000000000000000007bffffffffffffffffffffffffffffffffffffffffffffffffffffffff1916827bffffffffffffffffffffffffffffffffffffffffffffffffffffffff1916149050919050565b60008073ffffffffffffffffffffffffffffffffffffffff166002600084815260200190815260200160002060009054906101000a900473ffffffffffffffffffffffffffffffffffffffff1673ffffffffffffffffffffffffffffffffffffffff1614159050919050565b600033905090565b816004600083815260200190815260200160002060006101000a81548173ffffffffffffffffffffffffffffffffffffffff021916908373ffffffffffffffffffffffffffffffffffffffff160217905550808273ffffffffffffffffffffffffffffffffffffffff1661139e83610c2e565b73ffffffffffffffffffffffffffffffffffffffff167f8c5be1e5ebec7d5bd14f71427d1e84f3dd0314c0f7b2291e5b200ac8c7c3b92560405160405180910390a45050565b6113fe828260405180602001604052806000815250611b9c565b5050565b61140b826112b7565b61144a576040517f08c379a000000000000000000000000000000000000000000000000000000000815260040161144190612b94565b60405180910390fd5b806007600084815260200190815260200160002090805190602001906114719291906121b4565b505050565b6000611481826112b7565b6114c0576040517f08c379a00000000000000000000000000000000000000000000000000000000081526004016114b790612af4565b60405180910390fd5b60006114cb83610c2e565b90508073ffffffffffffffffffffffffffffffffffffffff168473ffffffffffffffffffffffffffffffffffffffff16148061150d575061150c81856110c1565b5b8061154b57508373ffffffffffffffffffffffffffffffffffffffff16611533846107c5565b73ffffffffffffffffffffffffffffffffffffffff16145b91505092915050565b8273ffffffffffffffffffffffffffffffffffffffff1661157482610c2e565b73ffffffffffffffffffffffffffffffffffffffff16146115ca576040517f08c379a00000000000000000000000000000000000000000000000000000000081526004016115c190612a74565b60405180910390fd5b600073ffffffffffffffffffffffffffffffffffffffff168273ffffffffffffffffffffffffffffffffffffffff16141561163a576040517f08c379a000000000000000000000000000000000000000000000000000000000815260040161163190612ab4565b60405180910390fd5b611645838383611bf7565b61165060008261132b565b6001600360008573ffffffffffffffffffffffffffffffffffffffff1673ffffffffffffffffffffffffffffffffffffffff16815260200190815260200160002060008282546116a09190612e0f565b925050819055506001600360008473ffffffffffffffffffffffffffffffffffffffff1673ffffffffffffffffffffffffffffffffffffffff16815260200190815260200160002060008282546116f79190612d88565b92505081905550816002600083815260200190815260200160002060006101000a81548173ffffffffffffffffffffffffffffffffffffffff021916908373ffffffffffffffffffffffffffffffffffffffff160217905550808273ffffffffffffffffffffffffffffffffffffffff168473ffffffffffffffffffffffffffffffffffffffff167fddf252ad1be2c89b69c2b068fc378daa952ba7f163c4a11628f55a4df523b3ef60405160405180910390a46117b6838383611bfc565b505050565b6000600660009054906101000a900473ffffffffffffffffffffffffffffffffffffffff16905081600660006101000a81548173ffffffffffffffffffffffffffffffffffffffff021916908373ffffffffffffffffffffffffffffffffffffffff1602179055508173ffffffffffffffffffffffffffffffffffffffff168173ffffffffffffffffffffffffffffffffffffffff167f8be0079c531659141344cd1fd0a4f28419497f9722a3daafe3b4186f6b6457e060405160405180910390a35050565b8173ffffffffffffffffffffffffffffffffffffffff168373ffffffffffffffffffffffffffffffffffffffff1614156118f0576040517f08c379a00000000000000000000000000000000000000000000000000000000081526004016118e790612ad4565b60405180910390fd5b80600560008573ffffffffffffffffffffffffffffffffffffffff1673ffffffffffffffffffffffffffffffffffffffff16815260200190815260200160002060008473ffffffffffffffffffffffffffffffffffffffff1673ffffffffffffffffffffffffffffffffffffffff16815260200190815260200160002060006101000a81548160ff0219169083151502179055508173ffffffffffffffffffffffffffffffffffffffff168373ffffffffffffffffffffffffffffffffffffffff167f17307eab39ab6107e8899845ad3d59bd9653f200f220920489ca2b5937696c31836040516119e191906129d7565b60405180910390a3505050565b6119f9848484611554565b611a0584848484611c01565b611a44576040517f08c379a0000000000000000000000000000000000000000000000000000000008152600401611a3b90612a34565b60405180910390fd5b50505050565b6060611a55826112b7565b611a94576040517f08c379a0000000000000000000000000000000000000000000000000000000008152600401611a8b90612bd4565b60405180910390fd5b6000600760008481526020019081526020016000208054611ab490612ef9565b80601f0160208091040260200160405190810160405280929190818152602001828054611ae090612ef9565b8015611b2d5780601f10611b0257610100808354040283529160200191611b2d565b820191906000526020600020905b815481529060010190602001808311611b1057829003601f168201915b505050505090506000611b3e611d98565b9050600081511415611b54578192505050611b97565b600082511115611b89578082604051602001611b7192919061294c565b60405160208183030381529060405292505050611b97565b611b9284611daf565b925050505b919050565b611ba68383611e56565b611bb36000848484611c01565b611bf2576040517f08c379a0000000000000000000000000000000000000000000000000000000008152600401611be990612a34565b60405180910390fd5b505050565b505050565b505050565b6000611c228473ffffffffffffffffffffffffffffffffffffffff16612030565b15611d8b578373ffffffffffffffffffffffffffffffffffffffff1663150b7a02611c4b611323565b8786866040518563ffffffff1660e01b8152600401611c6d949392919061298b565b602060405180830381600087803b158015611c8757600080fd5b505af1925050508015611cb857506040513d601f19601f82011682018060405250810190611cb59190612520565b60015b611d3b573d8060008114611ce8576040519150601f19603f3d011682016040523d82523d6000602084013e611ced565b606091505b50600081511415611d33576040517f08c379a0000000000000000000000000000000000000000000000000000000008152600401611d2a90612a34565b60405180910390fd5b805181602001fd5b63150b7a0260e01b7bffffffffffffffffffffffffffffffffffffffffffffffffffffffff1916817bffffffffffffffffffffffffffffffffffffffffffffffffffffffff191614915050611d90565b600190505b949350505050565b606060405180602001604052806000815250905090565b6060611dba826112b7565b611df9576040517f08c379a0000000000000000000000000000000000000000000000000000000008152600401611df090612c34565b60405180910390fd5b6000611e03611d98565b90506000815111611e235760405180602001604052806000815250611e4e565b80611e2d84612053565b604051602001611e3e92919061294c565b6040516020818303038152906040525b915050919050565b600073ffffffffffffffffffffffffffffffffffffffff168273ffffffffffffffffffffffffffffffffffffffff161415611ec6576040517f08c379a0000000000000000000000000000000000000000000000000000000008152600401611ebd90612bb4565b60405180910390fd5b611ecf816112b7565b15611f0f576040517f08c379a0000000000000000000000000000000000000000000000000000000008152600401611f0690612a94565b60405180910390fd5b611f1b60008383611bf7565b6001600360008473ffffffffffffffffffffffffffffffffffffffff1673ffffffffffffffffffffffffffffffffffffffff1681526020019081526020016000206000828254611f6b9190612d88565b92505081905550816002600083815260200190815260200160002060006101000a81548173ffffffffffffffffffffffffffffffffffffffff021916908373ffffffffffffffffffffffffffffffffffffffff160217905550808273ffffffffffffffffffffffffffffffffffffffff16600073ffffffffffffffffffffffffffffffffffffffff167fddf252ad1be2c89b69c2b068fc378daa952ba7f163c4a11628f55a4df523b3ef60405160405180910390a461202c60008383611bfc565b5050565b6000808273ffffffffffffffffffffffffffffffffffffffff163b119050919050565b6060600082141561209b576040518060400160405280600181526020017f300000000000000000000000000000000000000000000000000000000000000081525090506121af565b600082905060005b600082146120cd5780806120b690612f5c565b915050600a826120c69190612dde565b91506120a3565b60008167ffffffffffffffff8111156120e9576120e8613092565b5b6040519080825280601f01601f19166020018201604052801561211b5781602001600182028036833780820191505090505b5090505b600085146121a8576001826121349190612e0f565b9150600a856121439190612fa5565b603061214f9190612d88565b60f81b81838151811061216557612164613063565b5b60200101907effffffffffffffffffffffffffffffffffffffffffffffffffffffffffffff1916908160001a905350600a856121a19190612dde565b945061211f565b8093505050505b919050565b8280546121c090612ef9565b90600052602060002090601f0160209004810192826121e25760008555612229565b82601f106121fb57805160ff1916838001178555612229565b82800160010185558215612229579182015b8281111561222857825182559160200191906001019061220d565b5b509050612236919061223a565b5090565b5b8082111561225357600081600090555060010161223b565b5090565b600061226a61226584612d14565b612cef565b905082815260208101848484011115612286576122856130c6565b5b612291848285612eb7565b509392505050565b6000813590506122a881613680565b92915050565b6000813590506122bd81613697565b92915050565b6000813590506122d2816136ae565b92915050565b6000815190506122e7816136ae565b92915050565b600082601f830112612302576123016130c1565b5b8135612312848260208601612257565b91505092915050565b60008135905061232a816136c5565b92915050565b600060208284031215612346576123456130d0565b5b600061235484828501612299565b91505092915050565b60008060408385031215612374576123736130d0565b5b600061238285828601612299565b925050602061239385828601612299565b9150509250929050565b6000806000606084860312156123b6576123b56130d0565b5b60006123c486828701612299565b93505060206123d586828701612299565b92505060406123e68682870161231b565b9150509250925092565b6000806000806080858703121561240a576124096130d0565b5b600061241887828801612299565b945050602061242987828801612299565b935050604061243a8782880161231b565b925050606085013567ffffffffffffffff81111561245b5761245a6130cb565b5b612467878288016122ed565b91505092959194509250565b6000806040838503121561248a576124896130d0565b5b600061249885828601612299565b92505060206124a9858286016122ae565b9150509250929050565b600080604083850312156124ca576124c96130d0565b5b60006124d885828601612299565b92505060206124e98582860161231b565b9150509250929050565b600060208284031215612509576125086130d0565b5b6000612517848285016122c3565b91505092915050565b600060208284031215612536576125356130d0565b5b6000612544848285016122d8565b91505092915050565b600060208284031215612563576125626130d0565b5b60006125718482850161231b565b91505092915050565b61258381612e43565b82525050565b61259281612e55565b82525050565b60006125a382612d45565b6125ad8185612d5b565b93506125bd818560208601612ec6565b6125c6816130d5565b840191505092915050565b60006125dc82612d50565b6125e68185612d6c565b93506125f6818560208601612ec6565b6125ff816130d5565b840191505092915050565b600061261582612d50565b61261f8185612d7d565b935061262f818560208601612ec6565b80840191505092915050565b6000612648601683612d6c565b9150612653826130e6565b602082019050919050565b600061266b603283612d6c565b91506126768261310f565b604082019050919050565b600061268e602683612d6c565b91506126998261315e565b604082019050919050565b60006126b1602583612d6c565b91506126bc826131ad565b604082019050919050565b60006126d4601c83612d6c565b91506126df826131fc565b602082019050919050565b60006126f7602483612d6c565b915061270282613225565b604082019050919050565b600061271a601983612d6c565b915061272582613274565b602082019050919050565b600061273d602c83612d6c565b91506127488261329d565b604082019050919050565b6000612760600883612d6c565b915061276b826132ec565b602082019050919050565b6000612783603883612d6c565b915061278e82613315565b604082019050919050565b60006127a6602a83612d6c565b91506127b182613364565b604082019050919050565b60006127c9602983612d6c565b91506127d4826133b3565b604082019050919050565b60006127ec602e83612d6c565b91506127f782613402565b604082019050919050565b600061280f602083612d6c565b915061281a82613451565b602082019050919050565b6000612832603183612d6c565b915061283d8261347a565b604082019050919050565b6000612855602c83612d6c565b9150612860826134c9565b604082019050919050565b6000612878602083612d6c565b915061288382613518565b602082019050919050565b600061289b602f83612d6c565b91506128a682613541565b604082019050919050565b60006128be601683612d6c565b91506128c982613590565b602082019050919050565b60006128e1602183612d6c565b91506128ec826135b9565b604082019050919050565b6000612904603183612d6c565b915061290f82613608565b604082019050919050565b6000612927601483612d6c565b915061293282613657565b602082019050919050565b61294681612ead565b82525050565b6000612958828561260a565b9150612964828461260a565b91508190509392505050565b6000602082019050612985600083018461257a565b92915050565b60006080820190506129a0600083018761257a565b6129ad602083018661257a565b6129ba604083018561293d565b81810360608301526129cc8184612598565b905095945050505050565b60006020820190506129ec6000830184612589565b92915050565b60006020820190508181036000830152612a0c81846125d1565b905092915050565b60006020820190508181036000830152612a2d8161263b565b9050919050565b60006020820190508181036000830152612a4d8161265e565b9050919050565b60006020820190508181036000830152612a6d81612681565b9050919050565b60006020820190508181036000830152612a8d816126a4565b9050919050565b60006020820190508181036000830152612aad816126c7565b9050919050565b60006020820190508181036000830152612acd816126ea565b9050919050565b60006020820190508181036000830152612aed8161270d565b9050919050565b60006020820190508181036000830152612b0d81612730565b9050919050565b60006020820190508181036000830152612b2d81612753565b9050919050565b60006020820190508181036000830152612b4d81612776565b9050919050565b60006020820190508181036000830152612b6d81612799565b9050919050565b60006020820190508181036000830152612b8d816127bc565b9050919050565b60006020820190508181036000830152612bad816127df565b9050919050565b60006020820190508181036000830152612bcd81612802565b9050919050565b60006020820190508181036000830152612bed81612825565b9050919050565b60006020820190508181036000830152612c0d81612848565b9050919050565b60006020820190508181036000830152612c2d8161286b565b9050919050565b60006020820190508181036000830152612c4d8161288e565b9050919050565b60006020820190508181036000830152612c6d816128b1565b9050919050565b60006020820190508181036000830152612c8d816128d4565b9050919050565b60006020820190508181036000830152612cad816128f7565b9050919050565b60006020820190508181036000830152612ccd8161291a565b9050919050565b6000602082019050612ce9600083018461293d565b92915050565b6000612cf9612d0a565b9050612d058282612f2b565b919050565b6000604051905090565b600067ffffffffffffffff821115612d2f57612d2e613092565b5b612d38826130d5565b9050602081019050919050565b600081519050919050565b600081519050919050565b600082825260208201905092915050565b600082825260208201905092915050565b600081905092915050565b6000612d9382612ead565b9150612d9e83612ead565b9250827fffffffffffffffffffffffffffffffffffffffffffffffffffffffffffffffff03821115612dd357612dd2612fd6565b5b828201905092915050565b6000612de982612ead565b9150612df483612ead565b925082612e0457612e03613005565b5b828204905092915050565b6000612e1a82612ead565b9150612e2583612ead565b925082821015612e3857612e37612fd6565b5b828203905092915050565b6000612e4e82612e8d565b9050919050565b60008115159050919050565b60007fffffffff0000000000000000000000000000000000000000000000000000000082169050919050565b600073ffffffffffffffffffffffffffffffffffffffff82169050919050565b6000819050919050565b82818337600083830152505050565b60005b83811015612ee4578082015181840152602081019050612ec9565b83811115612ef3576000848401525b50505050565b60006002820490506001821680612f1157607f821691505b60208210811415612f2557612f24613034565b5b50919050565b612f34826130d5565b810181811067ffffffffffffffff82111715612f5357612f52613092565b5b80604052505050565b6000612f6782612ead565b91507fffffffffffffffffffffffffffffffffffffffffffffffffffffffffffffffff821415612f9a57612f99612fd6565b5b600182019050919050565b6000612fb082612ead565b9150612fbb83612ead565b925082612fcb57612fca613005565b5b828206905092915050565b7f4e487b7100000000000000000000000000000000000000000000000000000000600052601160045260246000fd5b7f4e487b7100000000000000000000000000000000000000000000000000000000600052601260045260246000fd5b7f4e487b7100000000000000000000000000000000000000000000000000000000600052602260045260246000fd5b7f4e487b7100000000000000000000000000000000000000000000000000000000600052603260045260246000fd5b7f4e487b7100000000000000000000000000000000000000000000000000000000600052604160045260246000fd5b600080fd5b600080fd5b600080fd5b600080fd5b6000601f19601f8301169050919050565b7f54686520707269636520697320696e636f727265637400000000000000000000600082015250565b7f4552433732313a207472616e7366657220746f206e6f6e20455243373231526560008201527f63656976657220696d706c656d656e7465720000000000000000000000000000602082015250565b7f4f776e61626c653a206e6577206f776e657220697320746865207a65726f206160008201527f6464726573730000000000000000000000000000000000000000000000000000602082015250565b7f4552433732313a207472616e736665722066726f6d20696e636f72726563742060008201527f6f776e6572000000000000000000000000000000000000000000000000000000602082015250565b7f4552433732313a20746f6b656e20616c7265616479206d696e74656400000000600082015250565b7f4552433732313a207472616e7366657220746f20746865207a65726f2061646460008201527f7265737300000000000000000000000000000000000000000000000000000000602082015250565b7f4552433732313a20617070726f766520746f2063616c6c657200000000000000600082015250565b7f4552433732313a206f70657261746f7220717565727920666f72206e6f6e657860008201527f697374656e7420746f6b656e0000000000000000000000000000000000000000602082015250565b7f736f6c64206f7574000000000000000000000000000000000000000000000000600082015250565b7f4552433732313a20617070726f76652063616c6c6572206973206e6f74206f7760008201527f6e6572206e6f7220617070726f76656420666f7220616c6c0000000000000000602082015250565b7f4552433732313a2062616c616e636520717565727920666f7220746865207a6560008201527f726f206164647265737300000000000000000000000000000000000000000000602082015250565b7f4552433732313a206f776e657220717565727920666f72206e6f6e657869737460008201527f656e7420746f6b656e0000000000000000000000000000000000000000000000602082015250565b7f45524337323155524953746f726167653a2055524920736574206f66206e6f6e60008201527f6578697374656e7420746f6b656e000000000000000000000000000000000000602082015250565b7f4552433732313a206d696e7420746f20746865207a65726f2061646472657373600082015250565b7f45524337323155524953746f726167653a2055524920717565727920666f722060008201527f6e6f6e6578697374656e7420746f6b656e000000000000000000000000000000602082015250565b7f4552433732313a20617070726f76656420717565727920666f72206e6f6e657860008201527f697374656e7420746f6b656e0000000000000000000000000000000000000000602082015250565b7f4f776e61626c653a2063616c6c6572206973206e6f7420746865206f776e6572600082015250565b7f4552433732314d657461646174613a2055524920717565727920666f72206e6f60008201527f6e6578697374656e7420746f6b656e0000000000000000000000000000000000602082015250565b7f6d696e74696e67206973206e6f7420656e61626c656400000000000000000000600082015250565b7f4552433732313a20617070726f76616c20746f2063757272656e74206f776e6560008201527f7200000000000000000000000000000000000000000000000000000000000000602082015250565b7f4552433732313a207472616e736665722063616c6c6572206973206e6f74206f60008201527f776e6572206e6f7220617070726f766564000000000000000000000000000000602082015250565b7f6f6e6c792066697665207065722077616c6c6574000000000000000000000000600082015250565b61368981612e43565b811461369457600080fd5b50565b6136a081612e55565b81146136ab57600080fd5b50565b6136b781612e61565b81146136c257600080fd5b50565b6136ce81612ead565b81146136d957600080fd5b5056fe697066733a2f2f516d5432673172633953434568664274513569486a714833564b43636b7269675a6157725a77396a535763556e48a2646970667358221220e4e18cb2f83afd57f142d714b25f09d4d78b30d2fe0e7bfcafbeb86f424bead964736f6c63430008070033",
  "linkReferences": {},
  "deployedLinkReferences": {}
}